{"abi":[{"type":"constructor","inputs":[],"stateMutability":"nonpayable"},{"type":"function","name":"AUDITOR_HW_ROLE","inputs":[],"outputs":[{"name":"","type":"bytes32","internalType":"bytes32"}],"stateMutability":"view"},{"type":"function","name":"DEFAULT_ADMIN_ROLE","inputs":[],"outputs":[{"name":"","type":"bytes32","internalType":"bytes32"}],"stateMutability":"view"},{"type":"function","name":"ESCUELA_ROLE","inputs":[],"outputs":[{"name":"","type":"bytes32","internalType":"bytes32"}],"stateMutability":"view"},{"type":"function","name":"FABRICANTE_ROLE","inputs":[],"outputs":[{"name":"","type":"bytes32","internalType":"bytes32"}],"stateMutability":"view"},{"type":"function","name":"TECNICO_SW_ROLE","inputs":[],"outputs":[{"name":"","type":"bytes32","internalType":"bytes32"}],"stateMutability":"view"},{"type":"function","name":"allSerialNumbers","inputs":[{"name":"","type":"uint256","internalType":"uint256"}],"outputs":[{"name":"","type":"string","internalType":"string"}],"stateMutability":"view"},{"type":"function","name":"assignToStudent","inputs":[{"name":"serial","type":"string","internalType":"string"},{"name":"schoolHash","type":"bytes32","internalType":"bytes32"},{"name":"studentHash","type":"bytes32","internalType":"bytes32"},{"name":"metadata","type":"string","internalType":"string"}],"outputs":[],"stateMutability":"nonpayable"},{"type":"function","name":"auditHardware","inputs":[{"name":"serial","type":"string","internalType":"string"},{"name":"passed","type":"bool","internalType":"bool"},{"name":"reportHash","type":"bytes32","internalType":"bytes32"},{"name":"metadata","type":"string","internalType":"string"}],"outputs":[],"stateMutability":"nonpayable"},{"type":"function","name":"getAllMembers","inputs":[{"name":"role","type":"bytes32","internalType":"bytes32"}],"outputs":[{"name":"","type":"address[]","internalType":"address[]"}],"stateMutability":"view"},{"type":"function","name":"getAllSerialNumbers","inputs":[],"outputs":[{"name":"","type":"string[]","internalType":"string[]"}],"stateMutability":"view"},{"type":"function","name":"getNetbookReport","inputs":[{"name":"serial","type":"string","internalType":"string"}],"outputs":[{"name":"","type":"tuple","internalType":"struct SupplyChainTracker.Netbook","components":[{"name":"serialNumber","type":"string","internalType":"string"},{"name":"batchId","type":"string","internalType":"string"},{"name":"initialModelSpecs","type":"string","internalType":"string"},{"name":"hwAuditor","type":"address","internalType":"address"},{"name":"hwIntegrityPassed","type":"bool","internalType":"bool"},{"name":"hwReportHash","type":"bytes32","internalType":"bytes32"},{"name":"swTechnician","type":"address","internalType":"address"},{"name":"osVersion","type":"string","internalType":"string"},{"name":"swValidationPassed","type":"bool","internalType":"bool"},{"name":"destinationSchoolHash","type":"bytes32","internalType":"bytes32"},{"name":"studentIdHash","type":"bytes32","internalType":"bytes32"},{"name":"distributionTimestamp","type":"uint256","internalType":"uint256"},{"name":"currentState","type":"uint8","internalType":"enum SupplyChainTracker.State"},{"name":"exists","type":"bool","internalType":"bool"},{"name":"tokenId","type":"uint256","internalType":"uint256"}]}],"stateMutability":"view"},{"type":"function","name":"getNetbookState","inputs":[{"name":"serial","type":"string","internalType":"string"}],"outputs":[{"name":"","type":"uint8","internalType":"enum SupplyChainTracker.State"}],"stateMutability":"view"},{"type":"function","name":"getNetbooksByState","inputs":[{"name":"state","type":"uint8","internalType":"enum SupplyChainTracker.State"}],"outputs":[{"name":"","type":"string[]","internalType":"string[]"}],"stateMutability":"view"},{"type":"function","name":"getRoleAdmin","inputs":[{"name":"role","type":"bytes32","internalType":"bytes32"}],"outputs":[{"name":"","type":"bytes32","internalType":"bytes32"}],"stateMutability":"view"},{"type":"function","name":"getRoleByName","inputs":[{"name":"roleType","type":"string","internalType":"string"}],"outputs":[{"name":"","type":"bytes32","internalType":"bytes32"}],"stateMutability":"pure"},{"type":"function","name":"getRoleMember","inputs":[{"name":"role","type":"bytes32","internalType":"bytes32"},{"name":"index","type":"uint256","internalType":"uint256"}],"outputs":[{"name":"","type":"address","internalType":"address"}],"stateMutability":"view"},{"type":"function","name":"getRoleMemberCount","inputs":[{"name":"role","type":"bytes32","internalType":"bytes32"}],"outputs":[{"name":"","type":"uint256","internalType":"uint256"}],"stateMutability":"view"},{"type":"function","name":"getRoleMembers","inputs":[{"name":"role","type":"bytes32","internalType":"bytes32"}],"outputs":[{"name":"","type":"address[]","internalType":"address[]"}],"stateMutability":"view"},{"type":"function","name":"getSerialNumber","inputs":[{"name":"tokenId","type":"uint256","internalType":"uint256"}],"outputs":[{"name":"","type":"string","internalType":"string"}],"stateMutability":"view"},{"type":"function","name":"getTokenId","inputs":[{"name":"serialNumber","type":"string","internalType":"string"}],"outputs":[{"name":"","type":"uint256","internalType":"uint256"}],"stateMutability":"view"},{"type":"function","name":"getTokenMetadata","inputs":[{"name":"tokenId","type":"uint256","internalType":"uint256"}],"outputs":[{"name":"","type":"string","internalType":"string"}],"stateMutability":"view"},{"type":"function","name":"grantRole","inputs":[{"name":"role","type":"bytes32","internalType":"bytes32"},{"name":"account","type":"address","internalType":"address"}],"outputs":[],"stateMutability":"nonpayable"},{"type":"function","name":"hasRole","inputs":[{"name":"role","type":"bytes32","internalType":"bytes32"},{"name":"account","type":"address","internalType":"address"}],"outputs":[{"name":"","type":"bool","internalType":"bool"}],"stateMutability":"view"},{"type":"function","name":"registerNetbooks","inputs":[{"name":"serials","type":"string[]","internalType":"string[]"},{"name":"batches","type":"string[]","internalType":"string[]"},{"name":"specs","type":"string[]","internalType":"string[]"},{"name":"metadata","type":"string[]","internalType":"string[]"}],"outputs":[],"stateMutability":"nonpayable"},{"type":"function","name":"renounceRole","inputs":[{"name":"role","type":"bytes32","internalType":"bytes32"},{"name":"callerConfirmation","type":"address","internalType":"address"}],"outputs":[],"stateMutability":"nonpayable"},{"type":"function","name":"revokeRole","inputs":[{"name":"role","type":"bytes32","internalType":"bytes32"},{"name":"account","type":"address","internalType":"address"}],"outputs":[],"stateMutability":"nonpayable"},{"type":"function","name":"serialToTokenId","inputs":[{"name":"","type":"string","internalType":"string"}],"outputs":[{"name":"","type":"uint256","internalType":"uint256"}],"stateMutability":"view"},{"type":"function","name":"supportsInterface","inputs":[{"name":"interfaceId","type":"bytes4","internalType":"bytes4"}],"outputs":[{"name":"","type":"bool","internalType":"bool"}],"stateMutability":"view"},{"type":"function","name":"tokenIdToSerial","inputs":[{"name":"","type":"uint256","internalType":"uint256"}],"outputs":[{"name":"","type":"string","internalType":"string"}],"stateMutability":"view"},{"type":"function","name":"totalNetbooks","inputs":[],"outputs":[{"name":"","type":"uint256","internalType":"uint256"}],"stateMutability":"view"},{"type":"function","name":"transactionToSerial","inputs":[{"name":"","type":"bytes32","internalType":"bytes32"}],"outputs":[{"name":"","type":"string","internalType":"string"}],"stateMutability":"view"},{"type":"function","name":"validateSoftware","inputs":[{"name":"serial","type":"string","internalType":"string"},{"name":"osVersion","type":"string","internalType":"string"},{"name":"passed","type":"bool","internalType":"bool"},{"name":"metadata","type":"string","internalType":"string"}],"outputs":[],"stateMutability":"nonpayable"},{"type":"event","name":"HardwareAudited","inputs":[{"name":"serialNumber","type":"string","indexed":true,"internalType":"string"},{"name":"auditor","type":"address","indexed":true,"internalType":"address"},{"name":"passed","type":"bool","indexed":false,"internalType":"bool"}],"anonymous":false},{"type":"event","name":"NetbookAssigned","inputs":[{"name":"serialNumber","type":"string","indexed":true,"internalType":"string"},{"name":"schoolHash","type":"bytes32","indexed":false,"internalType":"bytes32"},{"name":"studentHash","type":"bytes32","indexed":false,"internalType":"bytes32"}],"anonymous":false},{"type":"event","name":"NetbookRegistered","inputs":[{"name":"serialNumber","type":"string","indexed":true,"internalType":"string"},{"name":"batchId","type":"string","indexed":false,"internalType":"string"},{"name":"manufacturer","type":"address","indexed":true,"internalType":"address"}],"anonymous":false},{"type":"event","name":"RoleAdminChanged","inputs":[{"name":"role","type":"bytes32","indexed":true,"internalType":"bytes32"},{"name":"previousAdminRole","type":"bytes32","indexed":true,"internalType":"bytes32"},{"name":"newAdminRole","type":"bytes32","indexed":true,"internalType":"bytes32"}],"anonymous":false},{"type":"event","name":"RoleGranted","inputs":[{"name":"role","type":"bytes32","indexed":true,"internalType":"bytes32"},{"name":"account","type":"address","indexed":true,"internalType":"address"},{"name":"sender","type":"address","indexed":true,"internalType":"address"}],"anonymous":false},{"type":"event","name":"RoleRevoked","inputs":[{"name":"role","type":"bytes32","indexed":true,"internalType":"bytes32"},{"name":"account","type":"address","indexed":true,"internalType":"address"},{"name":"sender","type":"address","indexed":true,"internalType":"address"}],"anonymous":false},{"type":"event","name":"SoftwareValidated","inputs":[{"name":"serialNumber","type":"string","indexed":true,"internalType":"string"},{"name":"technician","type":"address","indexed":true,"internalType":"address"},{"name":"osVersion","type":"string","indexed":false,"internalType":"string"}],"anonymous":false},{"type":"event","name":"TraceabilityDataUpdated","inputs":[{"name":"transactionHash","type":"bytes32","indexed":true,"internalType":"bytes32"},{"name":"serialNumber","type":"string","indexed":false,"internalType":"string"},{"name":"dataType","type":"string","indexed":false,"internalType":"string"},{"name":"dataValue","type":"string","indexed":false,"internalType":"string"}],"anonymous":false},{"type":"error","name":"AccessControlBadConfirmation","inputs":[]},{"type":"error","name":"AccessControlUnauthorizedAccount","inputs":[{"name":"account","type":"address","internalType":"address"},{"name":"neededRole","type":"bytes32","internalType":"bytes32"}]}],"bytecode":{"object":"0x608060405234801561000f575f5ffd5b506100225f5f1b3361002860201b60201c565b506102c2565b5f610039838361004160201b60201c565b905092915050565b5f5f610053848461008a60201b60201c565b905080156100805761007e8360015f8781526020019081526020015f2061017f60201b90919060201c565b505b8091505092915050565b5f61009b83836101b260201b60201c565b6101755760015f5f8581526020019081526020015f205f015f8473ffffffffffffffffffffffffffffffffffffffff1673ffffffffffffffffffffffffffffffffffffffff1681526020019081526020015f205f6101000a81548160ff0219169083151502179055506101126101cb60201b60201c565b73ffffffffffffffffffffffffffffffffffffffff168273ffffffffffffffffffffffffffffffffffffffff16847f2f8788117e7eff1d82e926ec794901d17c78024a50270940304540a733656f0d60405160405180910390a460019050610179565b5f90505b92915050565b5f6101aa835f018373ffffffffffffffffffffffffffffffffffffffff165f1b6101d260201b60201c565b905092915050565b5f6101c3838361023f60201b60201c565b905092915050565b5f33905090565b5f6101e383836102a260201b60201c565b61023557825f0182908060018154018082558091505060019003905f5260205f20015f9091909190915055825f0180549050836001015f8481526020019081526020015f208190555060019050610239565b5f90505b92915050565b5f5f5f8481526020019081526020015f205f015f8373ffffffffffffffffffffffffffffffffffffffff1673ffffffffffffffffffffffffffffffffffffffff1681526020019081526020015f205f9054906101000a900460ff16905092915050565b5f5f836001015f8481526020019081526020015f20541415905092915050565b6158a4806102cf5f395ff3fe608060405234801561000f575f5ffd5b50600436106101ee575f3560e01c80639010d07c1161010d578063b141ac86116100a0578063d25c992a1161006f578063d25c992a14610660578063d547741f1461067e578063e01fe3671461069a578063e94e3923146106b8576101ee565b8063b141ac86146105c6578063c9d9e6b1146105e2578063ca15c87314610600578063cd28230614610630576101ee565b8063a3246ad3116100dc578063a3246ad31461051a578063a7aaac721461054a578063a9619e091461057a578063ae80ba80146105aa576101ee565b80639010d07c1461046c57806391d148541461049c5780639bd905f8146104cc578063a217fddf146104fc576101ee565b80634ace00c81161018557806369abb1d41161015457806369abb1d4146103e25780636b22d8591461040057806380a4721e1461041e5780638a56fd331461044e576101ee565b80634ace00c81461033657806353a9020e14610352578063591636351461038257806360316801146103b2576101ee565b80632e935f33116101c15780632e935f33146102b25780632f2ff15d146102e257806336568abe146102fe57806336853f761461031a576101ee565b806301ffc9a7146101f25780630cc13601146102225780631e7663bc14610252578063248a9ca314610282575b5f5ffd5b61020c60048036038101906102079190613416565b6106e8565b604051610219919061345b565b60405180910390f35b61023c600480360381019061023791906134a7565b6106f9565b6040516102499190613542565b60405180910390f35b61026c6004803603810190610267919061368e565b610794565b60405161027991906136e4565b60405180910390f35b61029c60048036038101906102979190613730565b6107bb565b6040516102a9919061376a565b60405180910390f35b6102cc60048036038101906102c791906137a6565b6107d7565b6040516102d991906138d4565b60405180910390f35b6102fc60048036038101906102f7919061394e565b610a42565b005b6103186004803603810190610313919061394e565b610a5e565b005b610334600480360381019061032f91906139e9565b610ad9565b005b610350600480360381019061034b9190613ab3565b610dbd565b005b61036c60048036038101906103679190613b72565b61110f565b604051610379919061376a565b60405180910390f35b61039c6004803603810190610397919061368e565b61149d565b6040516103a991906136e4565b60405180910390f35b6103cc60048036038101906103c791906134a7565b6114ca565b6040516103d99190613542565b60405180910390f35b6103ea61156b565b6040516103f7919061376a565b60405180910390f35b61040861158f565b60405161041591906136e4565b60405180910390f35b610438600480360381019061043391906134a7565b61159b565b6040516104459190613542565b60405180910390f35b610456611641565b604051610463919061376a565b60405180910390f35b61048660048036038101906104819190613bbd565b611665565b6040516104939190613c0a565b60405180910390f35b6104b660048036038101906104b1919061394e565b611691565b6040516104c3919061345b565b60405180910390f35b6104e660048036038101906104e191906134a7565b6116a4565b6040516104f39190613542565b60405180910390f35b610504611745565b604051610511919061376a565b60405180910390f35b610534600480360381019061052f9190613730565b61174b565b6040516105419190613cda565b60405180910390f35b610564600480360381019061055f9190613b72565b61176d565b6040516105719190613eef565b60405180910390f35b610594600480360381019061058f9190613730565b611bbe565b6040516105a19190613cda565b60405180910390f35b6105c460048036038101906105bf9190614042565b611c94565b005b6105e060048036038101906105db9190614122565b6125c3565b005b6105ea612907565b6040516105f7919061376a565b60405180910390f35b61061a60048036038101906106159190613730565b61292b565b60405161062791906136e4565b60405180910390f35b61064a60048036038101906106459190613b72565b61294c565b60405161065791906141d1565b60405180910390f35b6106686129f5565b604051610675919061376a565b60405180910390f35b6106986004803603810190610693919061394e565b612a19565b005b6106a2612a35565b6040516106af91906138d4565b60405180910390f35b6106d260048036038101906106cd9190613730565b612b09565b6040516106df9190613542565b60405180910390f35b5f6106f282612ba4565b9050919050565b6003602052805f5260405f205f91509050805461071590614217565b80601f016020809104026020016040519081016040528092919081815260200182805461074190614217565b801561078c5780601f106107635761010080835404028352916020019161078c565b820191905f5260205f20905b81548152906001019060200180831161076f57829003601f168201915b505050505081565b5f6002826040516107a59190614281565b9081526020016040518091039020549050919050565b5f5f5f8381526020019081526020015f20600101549050919050565b60605f5f90505f5f90505b60078054905081101561087e5783600381111561080257610801613d27565b5b60066007838154811061081857610817614297565b5b905f5260205f200160405161082d9190614356565b9081526020016040518091039020600b015f9054906101000a900460ff16600381111561085d5761085c613d27565b5b0361087157818061086d90614399565b9250505b80806001019150506107e2565b505f8167ffffffffffffffff81111561089a5761089961356a565b5b6040519080825280602002602001820160405280156108cd57816020015b60608152602001906001900390816108b85790505b5090505f5f90505f5f90505b600780549050811015610a36578560038111156108f9576108f8613d27565b5b60066007838154811061090f5761090e614297565b5b905f5260205f20016040516109249190614356565b9081526020016040518091039020600b015f9054906101000a900460ff16600381111561095457610953613d27565b5b03610a29576007818154811061096d5761096c614297565b5b905f5260205f2001805461098090614217565b80601f01602080910402602001604051908101604052809291908181526020018280546109ac90614217565b80156109f75780601f106109ce576101008083540402835291602001916109f7565b820191905f5260205f20905b8154815290600101906020018083116109da57829003601f168201915b5050505050838381518110610a0f57610a0e614297565b5b60200260200101819052508180610a2590614399565b9250505b80806001019150506108d9565b50819350505050919050565b5f5f1b610a4e81612c1d565b610a588383612c31565b50505050565b610a66612c44565b73ffffffffffffffffffffffffffffffffffffffff168173ffffffffffffffffffffffffffffffffffffffff1614610aca576040517f6697b23200000000000000000000000000000000000000000000000000000000815260040160405180910390fd5b610ad48282612c4b565b505050565b610b037fa8f5858ea94a9ede7bc5dd04119dcc24b3b02a20be15d673993d8b6c2a901ef933611691565b610b42576040517f08c379a0000000000000000000000000000000000000000000000000000000008152600401610b3990614450565b60405180910390fd5b5f60068686604051610b55929190614492565b9081526020016040518091039020905080600b0160019054906101000a900460ff16610bb6576040517f08c379a0000000000000000000000000000000000000000000000000000000008152600401610bad906144f4565b60405180910390fd5b60026003811115610bca57610bc9613d27565b5b81600b015f9054906101000a900460ff166003811115610bed57610bec613d27565b5b14610c2d576040517f08c379a0000000000000000000000000000000000000000000000000000000008152600401610c2490614582565b60405180910390fd5b8381600801819055508281600901819055504281600a0181905550600381600b015f6101000a81548160ff02191690836003811115610c6f57610c6e613d27565b5b02179055505f81600c015490508260055f8381526020019081526020015f209081610c9a919061472e565b505f33428989604051602001610cb394939291906148ac565b604051602081830303815290604052805190602001209050878760085f8481526020019081526020015f209182610ceb9291906148fb565b508787604051610cfc929190614492565b60405180910390207f44b0ed872d580d3158a262762e125af254f3d13be344d019e836ab42bbea47208787604051610d359291906149c8565b60405180910390a2807f92cbcd4ff01297a936f2aca89a7b6e567c2f20224247c06b12a4d81f75c845b0898987604051610d7193929190614a3d565b60405180910390a2807f92cbcd4ff01297a936f2aca89a7b6e567c2f20224247c06b12a4d81f75c845b08989604051610dab929190614b1b565b60405180910390a25050505050505050565b610de77feeb4ddf6a0e2f06cb86713282a0b88ee789709e92a08b9e9b4ce816bbb13fcaf33611691565b610e26576040517f08c379a0000000000000000000000000000000000000000000000000000000008152600401610e1d90614bd3565b60405180910390fd5b5f60068787604051610e39929190614492565b9081526020016040518091039020905080600b0160019054906101000a900460ff16610e9a576040517f08c379a0000000000000000000000000000000000000000000000000000000008152600401610e91906144f4565b60405180910390fd5b60016003811115610eae57610ead613d27565b5b81600b015f9054906101000a900460ff166003811115610ed157610ed0613d27565b5b14610f11576040517f08c379a0000000000000000000000000000000000000000000000000000000008152600401610f0890614c61565b60405180910390fd5b33816005015f6101000a81548173ffffffffffffffffffffffffffffffffffffffff021916908373ffffffffffffffffffffffffffffffffffffffff1602179055508484826006019182610f669291906148fb565b5082816007015f6101000a81548160ff021916908315150217905550600281600b015f6101000a81548160ff02191690836003811115610fa957610fa8613d27565b5b02179055505f81600c015490508260055f8381526020019081526020015f209081610fd4919061472e565b505f33428a8a604051602001610fed9493929190614cc9565b604051602081830303815290604052805190602001209050888860085f8481526020019081526020015f2091826110259291906148fb565b503373ffffffffffffffffffffffffffffffffffffffff16898960405161104d929190614492565b60405180910390207fdb120272cbc7bb48f3d9132fbea9bf6c41e73247b75325291d86bceb88b97cc78989604051611086929190614d0e565b60405180910390a3807f92cbcd4ff01297a936f2aca89a7b6e567c2f20224247c06b12a4d81f75c845b08a8a876040516110c293929190614d52565b60405180910390a2807f92cbcd4ff01297a936f2aca89a7b6e567c2f20224247c06b12a4d81f75c845b08a8a6040516110fc929190614de6565b60405180910390a2505050505050505050565b5f60405160200161111f90614e78565b604051602081830303815290604052805190602001208383604051602001611148929190614492565b604051602081830303815290604052805190602001200361118b577fbe0c84bfff967b2deb88bd0540d4a796d0ebfdcb72262ced26f1892b419e64579050611497565b60405160200161119a90614ed6565b6040516020818303038152906040528051906020012083836040516020016111c3929190614492565b6040516020818303038152906040528051906020012003611206577f49c0376dc7caa3eab0c186e9bc20bf968b0724fea74a37706c35f59bc5d8b15b9050611497565b60405160200161121590614f34565b60405160208183030381529060405280519060200120838360405160200161123e929190614492565b6040516020818303038152906040528051906020012003611281577feeb4ddf6a0e2f06cb86713282a0b88ee789709e92a08b9e9b4ce816bbb13fcaf9050611497565b60405160200161129090614f92565b6040516020818303038152906040528051906020012083836040516020016112b9929190614492565b60405160208183030381529060405280519060200120036112fc577fa8f5858ea94a9ede7bc5dd04119dcc24b3b02a20be15d673993d8b6c2a901ef99050611497565b60405160200161130b90614ff0565b604051602081830303815290604052805190602001208383604051602001611334929190614492565b6040516020818303038152906040528051906020012014806113a157506040516020016113609061504e565b604051602081830303815290604052805190602001208383604051602001611389929190614492565b60405160208183030381529060405280519060200120145b806113f757506040516020016113b6906150ac565b6040516020818303038152906040528051906020012083836040516020016113df929190614492565b60405160208183030381529060405280519060200120145b8061144d575060405160200161140c9061510a565b604051602081830303815290604052805190602001208383604051602001611435929190614492565b60405160208183030381529060405280519060200120145b1561145c575f5f1b9050611497565b6040517f08c379a000000000000000000000000000000000000000000000000000000000815260040161148e90615168565b60405180910390fd5b92915050565b6002818051602081018201805184825260208301602085012081835280955050505050505f915090505481565b606060055f8381526020019081526020015f2080546114e890614217565b80601f016020809104026020016040519081016040528092919081815260200182805461151490614217565b801561155f5780601f106115365761010080835404028352916020019161155f565b820191905f5260205f20905b81548152906001019060200180831161154257829003601f168201915b50505050509050919050565b7f49c0376dc7caa3eab0c186e9bc20bf968b0724fea74a37706c35f59bc5d8b15b81565b5f600780549050905090565b600781815481106115aa575f80fd5b905f5260205f20015f9150905080546115c290614217565b80601f01602080910402602001604051908101604052809291908181526020018280546115ee90614217565b80156116395780601f1061161057610100808354040283529160200191611639565b820191905f5260205f20905b81548152906001019060200180831161161c57829003601f168201915b505050505081565b7fa8f5858ea94a9ede7bc5dd04119dcc24b3b02a20be15d673993d8b6c2a901ef981565b5f6116898260015f8681526020019081526020015f20612c5e90919063ffffffff16565b905092915050565b5f61169c8383612c75565b905092915050565b606060035f8381526020019081526020015f2080546116c290614217565b80601f01602080910402602001604051908101604052809291908181526020018280546116ee90614217565b80156117395780601f1061171057610100808354040283529160200191611739565b820191905f5260205f20905b81548152906001019060200180831161171c57829003601f168201915b50505050509050919050565b5f5f1b81565b606061176660015f8481526020019081526020015f20612cd8565b9050919050565b611775613301565b60068383604051611787929190614492565b9081526020016040518091039020600b0160019054906101000a900460ff166117e5576040517f08c379a00000000000000000000000000000000000000000000000000000000081526004016117dc906144f4565b60405180910390fd5b600683836040516117f7929190614492565b9081526020016040518091039020604051806101e00160405290815f8201805461182090614217565b80601f016020809104026020016040519081016040528092919081815260200182805461184c90614217565b80156118975780601f1061186e57610100808354040283529160200191611897565b820191905f5260205f20905b81548152906001019060200180831161187a57829003601f168201915b505050505081526020016001820180546118b090614217565b80601f01602080910402602001604051908101604052809291908181526020018280546118dc90614217565b80156119275780601f106118fe57610100808354040283529160200191611927565b820191905f5260205f20905b81548152906001019060200180831161190a57829003601f168201915b5050505050815260200160028201805461194090614217565b80601f016020809104026020016040519081016040528092919081815260200182805461196c90614217565b80156119b75780601f1061198e576101008083540402835291602001916119b7565b820191905f5260205f20905b81548152906001019060200180831161199a57829003601f168201915b50505050508152602001600382015f9054906101000a900473ffffffffffffffffffffffffffffffffffffffff1673ffffffffffffffffffffffffffffffffffffffff1673ffffffffffffffffffffffffffffffffffffffff1681526020016003820160149054906101000a900460ff1615151515815260200160048201548152602001600582015f9054906101000a900473ffffffffffffffffffffffffffffffffffffffff1673ffffffffffffffffffffffffffffffffffffffff1673ffffffffffffffffffffffffffffffffffffffff168152602001600682018054611a9f90614217565b80601f0160208091040260200160405190810160405280929190818152602001828054611acb90614217565b8015611b165780601f10611aed57610100808354040283529160200191611b16565b820191905f5260205f20905b815481529060010190602001808311611af957829003601f168201915b50505050508152602001600782015f9054906101000a900460ff161515151581526020016008820154815260200160098201548152602001600a8201548152602001600b82015f9054906101000a900460ff166003811115611b7b57611b7a613d27565b5b6003811115611b8d57611b8c613d27565b5b8152602001600b820160019054906101000a900460ff16151515158152602001600c82015481525050905092915050565b60605f611bca8361292b565b90505f8167ffffffffffffffff811115611be757611be661356a565b5b604051908082528060200260200182016040528015611c155781602001602082028036833780820191505090505b5090505f5f90505b82811015611c8957611c2f8582611665565b828281518110611c4257611c41614297565b5b602002602001019073ffffffffffffffffffffffffffffffffffffffff16908173ffffffffffffffffffffffffffffffffffffffff16815250508080600101915050611c1d565b508092505050919050565b611cbe7fbe0c84bfff967b2deb88bd0540d4a796d0ebfdcb72262ced26f1892b419e645733611691565b611cfd576040517f08c379a0000000000000000000000000000000000000000000000000000000008152600401611cf4906151f6565b60405180910390fd5b8484905087879050148015611d1757508282905087879050145b8015611d265750805187879050145b611d65576040517f08c379a0000000000000000000000000000000000000000000000000000000008152600401611d5c9061525e565b60405180910390fd5b5f5f90505b878790508110156125b9575f888883818110611d8957611d88614297565b5b9050602002810190611d9b9190615288565b905011611ddd576040517f08c379a0000000000000000000000000000000000000000000000000000000008152600401611dd490615334565b60405180910390fd5b6006888883818110611df257611df1614297565b5b9050602002810190611e049190615288565b604051611e12929190614492565b9081526020016040518091039020600b0160019054906101000a900460ff1615611e71576040517f08c379a0000000000000000000000000000000000000000000000000000000008152600401611e689061539c565b60405180910390fd5b5f600454905060045f815480929190611e8990614399565b9190505550604051806101e001604052808a8a85818110611ead57611eac614297565b5b9050602002810190611ebf9190615288565b8080601f0160208091040260200160405190810160405280939291908181526020018383808284375f81840152601f19601f820116905080830192505050505050508152602001888885818110611f1957611f18614297565b5b9050602002810190611f2b9190615288565b8080601f0160208091040260200160405190810160405280939291908181526020018383808284375f81840152601f19601f820116905080830192505050505050508152602001868685818110611f8557611f84614297565b5b9050602002810190611f979190615288565b8080601f0160208091040260200160405190810160405280939291908181526020018383808284375f81840152601f19601f8201169050808301925050505050505081526020015f73ffffffffffffffffffffffffffffffffffffffff1681526020015f151581526020015f5f1b81526020015f73ffffffffffffffffffffffffffffffffffffffff16815260200160405180602001604052805f81525081526020015f151581526020015f5f1b81526020015f5f1b81526020015f81526020015f600381111561206b5761206a613d27565b5b81526020016001151581526020018281525060068a8a8581811061209257612091614297565b5b90506020028101906120a49190615288565b6040516120b2929190614492565b90815260200160405180910390205f820151815f0190816120d3919061472e565b5060208201518160010190816120e9919061472e565b5060408201518160020190816120ff919061472e565b506060820151816003015f6101000a81548173ffffffffffffffffffffffffffffffffffffffff021916908373ffffffffffffffffffffffffffffffffffffffff16021790555060808201518160030160146101000a81548160ff02191690831515021790555060a0820151816004015560c0820151816005015f6101000a81548173ffffffffffffffffffffffffffffffffffffffff021916908373ffffffffffffffffffffffffffffffffffffffff16021790555060e08201518160060190816121cb919061472e565b50610100820151816007015f6101000a81548160ff0219169083151502179055506101208201518160080155610140820151816009015561016082015181600a015561018082015181600b015f6101000a81548160ff0219169083600381111561223857612237613d27565b5b02179055506101a082015181600b0160016101000a81548160ff0219169083151502179055506101c082015181600c01559050508060028a8a8581811061228257612281614297565b5b90506020028101906122949190615288565b6040516122a2929190614492565b9081526020016040518091039020819055508888838181106122c7576122c6614297565b5b90506020028101906122d99190615288565b60035f8481526020019081526020015f2091826122f79291906148fb565b5082828151811061230b5761230a614297565b5b602002602001015160055f8381526020019081526020015f209081612330919061472e565b505f33428b8b8681811061234757612346614297565b5b90506020028101906123599190615288565b60405160200161236c94939291906153ba565b60405160208183030381529060405280519060200120905089898481811061239757612396614297565b5b90506020028101906123a99190615288565b60085f8481526020019081526020015f2091826123c79291906148fb565b5060078a8a858181106123dd576123dc614297565b5b90506020028101906123ef9190615288565b90918060018154018082558091505060019003905f5260205f20015f9091929091929091929091925091826124259291906148fb565b503373ffffffffffffffffffffffffffffffffffffffff168a8a858181106124505761244f614297565b5b90506020028101906124629190615288565b604051612470929190614492565b60405180910390207f2b7a0a6261ee6288ab0cae65d66eaaf6751e3b95766279e61aafd3ee645bce618a8a878181106124ac576124ab614297565b5b90506020028101906124be9190615288565b6040516124cc929190614d0e565b60405180910390a3807f92cbcd4ff01297a936f2aca89a7b6e567c2f20224247c06b12a4d81f75c845b08b8b8681811061250957612508614297565b5b905060200281019061251b9190615288565b604051612529929190615488565b60405180910390a2807f92cbcd4ff01297a936f2aca89a7b6e567c2f20224247c06b12a4d81f75c845b08b8b8681811061256657612565614297565b5b90506020028101906125789190615288565b87878151811061258b5761258a614297565b5b60200260200101516040516125a29392919061551a565b60405180910390a250508080600101915050611d6a565b5050505050505050565b6125ed7f49c0376dc7caa3eab0c186e9bc20bf968b0724fea74a37706c35f59bc5d8b15b33611691565b61262c576040517f08c379a0000000000000000000000000000000000000000000000000000000008152600401612623906155d4565b60405180910390fd5b5f6006868660405161263f929190614492565b9081526020016040518091039020905080600b0160019054906101000a900460ff166126a0576040517f08c379a0000000000000000000000000000000000000000000000000000000008152600401612697906144f4565b60405180910390fd5b5f60038111156126b3576126b2613d27565b5b81600b015f9054906101000a900460ff1660038111156126d6576126d5613d27565b5b14612716576040517f08c379a000000000000000000000000000000000000000000000000000000000815260040161270d9061563c565b60405180910390fd5b33816003015f6101000a81548173ffffffffffffffffffffffffffffffffffffffff021916908373ffffffffffffffffffffffffffffffffffffffff160217905550838160030160146101000a81548160ff021916908315150217905550828160040181905550600181600b015f6101000a81548160ff021916908360038111156127a4576127a3613d27565b5b02179055505f81600c015490508260055f8381526020019081526020015f2090816127cf919061472e565b505f334289896040516020016127e894939291906156a4565b604051602081830303815290604052805190602001209050878760085f8481526020019081526020015f2091826128209291906148fb565b503373ffffffffffffffffffffffffffffffffffffffff168888604051612848929190614492565b60405180910390207f3eb9473c1d0acffcd27dbadb1e3c9cfb681da18cb301f1ee86e0449533198af88860405161287f919061345b565b60405180910390a3807f92cbcd4ff01297a936f2aca89a7b6e567c2f20224247c06b12a4d81f75c845b08989876040516128bb9392919061570b565b60405180910390a2807f92cbcd4ff01297a936f2aca89a7b6e567c2f20224247c06b12a4d81f75c845b089896040516128f592919061579f565b60405180910390a25050505050505050565b7fbe0c84bfff967b2deb88bd0540d4a796d0ebfdcb72262ced26f1892b419e645781565b5f61294560015f8481526020019081526020015f20612cf7565b9050919050565b5f6006838360405161295f929190614492565b9081526020016040518091039020600b0160019054906101000a900460ff166129bd576040517f08c379a00000000000000000000000000000000000000000000000000000000081526004016129b4906144f4565b60405180910390fd5b600683836040516129cf929190614492565b9081526020016040518091039020600b015f9054906101000a900460ff16905092915050565b7feeb4ddf6a0e2f06cb86713282a0b88ee789709e92a08b9e9b4ce816bbb13fcaf81565b5f5f1b612a2581612c1d565b612a2f8383612c4b565b50505050565b60606007805480602002602001604051908101604052809291908181526020015f905b82821015612b00578382905f5260205f20018054612a7590614217565b80601f0160208091040260200160405190810160405280929190818152602001828054612aa190614217565b8015612aec5780601f10612ac357610100808354040283529160200191612aec565b820191905f5260205f20905b815481529060010190602001808311612acf57829003601f168201915b505050505081526020019060010190612a58565b50505050905090565b6008602052805f5260405f205f915090508054612b2590614217565b80601f0160208091040260200160405190810160405280929190818152602001828054612b5190614217565b8015612b9c5780601f10612b7357610100808354040283529160200191612b9c565b820191905f5260205f20905b815481529060010190602001808311612b7f57829003601f168201915b505050505081565b5f7f5a05180f000000000000000000000000000000000000000000000000000000007bffffffffffffffffffffffffffffffffffffffffffffffffffffffff1916827bffffffffffffffffffffffffffffffffffffffffffffffffffffffff19161480612c165750612c1582612d0a565b5b9050919050565b612c2e81612c29612c44565b612d83565b50565b5f612c3c8383612dd4565b905092915050565b5f33905090565b5f612c568383612e17565b905092915050565b5f612c6b835f0183612e5a565b5f1c905092915050565b5f5f5f8481526020019081526020015f205f015f8373ffffffffffffffffffffffffffffffffffffffff1673ffffffffffffffffffffffffffffffffffffffff1681526020019081526020015f205f9054906101000a900460ff16905092915050565b60605f612ce6835f01612e81565b905060608190508092505050919050565b5f612d03825f01612eda565b9050919050565b5f7f7965db0b000000000000000000000000000000000000000000000000000000007bffffffffffffffffffffffffffffffffffffffffffffffffffffffff1916827bffffffffffffffffffffffffffffffffffffffffffffffffffffffff19161480612d7c5750612d7b82612ee9565b5b9050919050565b612d8d8282611691565b612dd05780826040517fe2517d3f000000000000000000000000000000000000000000000000000000008152600401612dc79291906157e7565b60405180910390fd5b5050565b5f5f612de08484612f52565b90508015612e0d57612e0b8360015f8781526020019081526020015f2061303b90919063ffffffff16565b505b8091505092915050565b5f5f612e238484613068565b90508015612e5057612e4e8360015f8781526020019081526020015f2061315190919063ffffffff16565b505b8091505092915050565b5f825f018281548110612e7057612e6f614297565b5b905f5260205f200154905092915050565b6060815f01805480602002602001604051908101604052809291908181526020018280548015612ece57602002820191905f5260205f20905b815481526020019060010190808311612eba575b50505050509050919050565b5f815f01805490509050919050565b5f7f01ffc9a7000000000000000000000000000000000000000000000000000000007bffffffffffffffffffffffffffffffffffffffffffffffffffffffff1916827bffffffffffffffffffffffffffffffffffffffffffffffffffffffff1916149050919050565b5f612f5d8383611691565b6130315760015f5f8581526020019081526020015f205f015f8473ffffffffffffffffffffffffffffffffffffffff1673ffffffffffffffffffffffffffffffffffffffff1681526020019081526020015f205f6101000a81548160ff021916908315150217905550612fce612c44565b73ffffffffffffffffffffffffffffffffffffffff168273ffffffffffffffffffffffffffffffffffffffff16847f2f8788117e7eff1d82e926ec794901d17c78024a50270940304540a733656f0d60405160405180910390a460019050613035565b5f90505b92915050565b5f613060835f018373ffffffffffffffffffffffffffffffffffffffff165f1b61317e565b905092915050565b5f6130738383611691565b15613147575f5f5f8581526020019081526020015f205f015f8473ffffffffffffffffffffffffffffffffffffffff1673ffffffffffffffffffffffffffffffffffffffff1681526020019081526020015f205f6101000a81548160ff0219169083151502179055506130e4612c44565b73ffffffffffffffffffffffffffffffffffffffff168273ffffffffffffffffffffffffffffffffffffffff16847ff6391f5c32d9c69d2a47ea670b442974b53935d1edc7fd64eb21e047a839171b60405160405180910390a46001905061314b565b5f90505b92915050565b5f613176835f018373ffffffffffffffffffffffffffffffffffffffff165f1b6131e5565b905092915050565b5f61318983836132e1565b6131db57825f0182908060018154018082558091505060019003905f5260205f20015f9091909190915055825f0180549050836001015f8481526020019081526020015f2081905550600190506131df565b5f90505b92915050565b5f5f836001015f8481526020019081526020015f205490505f81146132d6575f600182613212919061580e565b90505f6001865f0180549050613228919061580e565b905080821461328e575f865f01828154811061324757613246614297565b5b905f5260205f200154905080875f01848154811061326857613267614297565b5b905f5260205f20018190555083876001015f8381526020019081526020015f2081905550505b855f018054806132a1576132a0615841565b5b600190038181905f5260205f20015f90559055856001015f8681526020019081526020015f205f9055600193505050506132db565b5f9150505b92915050565b5f5f836001015f8481526020019081526020015f20541415905092915050565b604051806101e001604052806060815260200160608152602001606081526020015f73ffffffffffffffffffffffffffffffffffffffff1681526020015f151581526020015f81526020015f73ffffffffffffffffffffffffffffffffffffffff168152602001606081526020015f151581526020015f81526020015f81526020015f81526020015f600381111561339c5761339b613d27565b5b81526020015f151581526020015f81525090565b5f604051905090565b5f5ffd5b5f5ffd5b5f7fffffffff0000000000000000000000000000000000000000000000000000000082169050919050565b6133f5816133c1565b81146133ff575f5ffd5b50565b5f81359050613410816133ec565b92915050565b5f6020828403121561342b5761342a6133b9565b5b5f61343884828501613402565b91505092915050565b5f8115159050919050565b61345581613441565b82525050565b5f60208201905061346e5f83018461344c565b92915050565b5f819050919050565b61348681613474565b8114613490575f5ffd5b50565b5f813590506134a18161347d565b92915050565b5f602082840312156134bc576134bb6133b9565b5b5f6134c984828501613493565b91505092915050565b5f81519050919050565b5f82825260208201905092915050565b8281835e5f83830152505050565b5f601f19601f8301169050919050565b5f613514826134d2565b61351e81856134dc565b935061352e8185602086016134ec565b613537816134fa565b840191505092915050565b5f6020820190508181035f83015261355a818461350a565b905092915050565b5f5ffd5b5f5ffd5b7f4e487b71000000000000000000000000000000000000000000000000000000005f52604160045260245ffd5b6135a0826134fa565b810181811067ffffffffffffffff821117156135bf576135be61356a565b5b80604052505050565b5f6135d16133b0565b90506135dd8282613597565b919050565b5f67ffffffffffffffff8211156135fc576135fb61356a565b5b613605826134fa565b9050602081019050919050565b828183375f83830152505050565b5f61363261362d846135e2565b6135c8565b90508281526020810184848401111561364e5761364d613566565b5b613659848285613612565b509392505050565b5f82601f83011261367557613674613562565b5b8135613685848260208601613620565b91505092915050565b5f602082840312156136a3576136a26133b9565b5b5f82013567ffffffffffffffff8111156136c0576136bf6133bd565b5b6136cc84828501613661565b91505092915050565b6136de81613474565b82525050565b5f6020820190506136f75f8301846136d5565b92915050565b5f819050919050565b61370f816136fd565b8114613719575f5ffd5b50565b5f8135905061372a81613706565b92915050565b5f60208284031215613745576137446133b9565b5b5f6137528482850161371c565b91505092915050565b613764816136fd565b82525050565b5f60208201905061377d5f83018461375b565b92915050565b6004811061378f575f5ffd5b50565b5f813590506137a081613783565b92915050565b5f602082840312156137bb576137ba6133b9565b5b5f6137c884828501613792565b91505092915050565b5f81519050919050565b5f82825260208201905092915050565b5f819050602082019050919050565b5f82825260208201905092915050565b5f613814826134d2565b61381e81856137fa565b935061382e8185602086016134ec565b613837816134fa565b840191505092915050565b5f61384d838361380a565b905092915050565b5f602082019050919050565b5f61386b826137d1565b61387581856137db565b935083602082028501613887856137eb565b805f5b858110156138c257848403895281516138a38582613842565b94506138ae83613855565b925060208a0199505060018101905061388a565b50829750879550505050505092915050565b5f6020820190508181035f8301526138ec8184613861565b905092915050565b5f73ffffffffffffffffffffffffffffffffffffffff82169050919050565b5f61391d826138f4565b9050919050565b61392d81613913565b8114613937575f5ffd5b50565b5f8135905061394881613924565b92915050565b5f5f60408385031215613964576139636133b9565b5b5f6139718582860161371c565b92505060206139828582860161393a565b9150509250929050565b5f5ffd5b5f5ffd5b5f5f83601f8401126139a9576139a8613562565b5b8235905067ffffffffffffffff8111156139c6576139c561398c565b5b6020830191508360018202830111156139e2576139e1613990565b5b9250929050565b5f5f5f5f5f60808688031215613a0257613a016133b9565b5b5f86013567ffffffffffffffff811115613a1f57613a1e6133bd565b5b613a2b88828901613994565b95509550506020613a3e8882890161371c565b9350506040613a4f8882890161371c565b925050606086013567ffffffffffffffff811115613a7057613a6f6133bd565b5b613a7c88828901613661565b9150509295509295909350565b613a9281613441565b8114613a9c575f5ffd5b50565b5f81359050613aad81613a89565b92915050565b5f5f5f5f5f5f60808789031215613acd57613acc6133b9565b5b5f87013567ffffffffffffffff811115613aea57613ae96133bd565b5b613af689828a01613994565b9650965050602087013567ffffffffffffffff811115613b1957613b186133bd565b5b613b2589828a01613994565b94509450506040613b3889828a01613a9f565b925050606087013567ffffffffffffffff811115613b5957613b586133bd565b5b613b6589828a01613661565b9150509295509295509295565b5f5f60208385031215613b8857613b876133b9565b5b5f83013567ffffffffffffffff811115613ba557613ba46133bd565b5b613bb185828601613994565b92509250509250929050565b5f5f60408385031215613bd357613bd26133b9565b5b5f613be08582860161371c565b9250506020613bf185828601613493565b9150509250929050565b613c0481613913565b82525050565b5f602082019050613c1d5f830184613bfb565b92915050565b5f81519050919050565b5f82825260208201905092915050565b5f819050602082019050919050565b613c5581613913565b82525050565b5f613c668383613c4c565b60208301905092915050565b5f602082019050919050565b5f613c8882613c23565b613c928185613c2d565b9350613c9d83613c3d565b805f5b83811015613ccd578151613cb48882613c5b565b9750613cbf83613c72565b925050600181019050613ca0565b5085935050505092915050565b5f6020820190508181035f830152613cf28184613c7e565b905092915050565b613d0381613441565b82525050565b613d12816136fd565b82525050565b613d2181613474565b82525050565b7f4e487b71000000000000000000000000000000000000000000000000000000005f52602160045260245ffd5b60048110613d6557613d64613d27565b5b50565b5f819050613d7582613d54565b919050565b5f613d8482613d68565b9050919050565b613d9481613d7a565b82525050565b5f6101e083015f8301518482035f860152613db5828261380a565b91505060208301518482036020860152613dcf828261380a565b91505060408301518482036040860152613de9828261380a565b9150506060830151613dfe6060860182613c4c565b506080830151613e116080860182613cfa565b5060a0830151613e2460a0860182613d09565b5060c0830151613e3760c0860182613c4c565b5060e083015184820360e0860152613e4f828261380a565b915050610100830151613e66610100860182613cfa565b50610120830151613e7b610120860182613d09565b50610140830151613e90610140860182613d09565b50610160830151613ea5610160860182613d18565b50610180830151613eba610180860182613d8b565b506101a0830151613ecf6101a0860182613cfa565b506101c0830151613ee46101c0860182613d18565b508091505092915050565b5f6020820190508181035f830152613f078184613d9a565b905092915050565b5f5f83601f840112613f2457613f23613562565b5b8235905067ffffffffffffffff811115613f4157613f4061398c565b5b602083019150836020820283011115613f5d57613f5c613990565b5b9250929050565b5f67ffffffffffffffff821115613f7e57613f7d61356a565b5b602082029050602081019050919050565b5f613fa1613f9c84613f64565b6135c8565b90508083825260208201905060208402830185811115613fc457613fc3613990565b5b835b8181101561400b57803567ffffffffffffffff811115613fe957613fe8613562565b5b808601613ff68982613661565b85526020850194505050602081019050613fc6565b5050509392505050565b5f82601f83011261402957614028613562565b5b8135614039848260208601613f8f565b91505092915050565b5f5f5f5f5f5f5f6080888a03121561405d5761405c6133b9565b5b5f88013567ffffffffffffffff81111561407a576140796133bd565b5b6140868a828b01613f0f565b9750975050602088013567ffffffffffffffff8111156140a9576140a86133bd565b5b6140b58a828b01613f0f565b9550955050604088013567ffffffffffffffff8111156140d8576140d76133bd565b5b6140e48a828b01613f0f565b9350935050606088013567ffffffffffffffff811115614107576141066133bd565b5b6141138a828b01614015565b91505092959891949750929550565b5f5f5f5f5f6080868803121561413b5761413a6133b9565b5b5f86013567ffffffffffffffff811115614158576141576133bd565b5b61416488828901613994565b9550955050602061417788828901613a9f565b93505060406141888882890161371c565b925050606086013567ffffffffffffffff8111156141a9576141a86133bd565b5b6141b588828901613661565b9150509295509295909350565b6141cb81613d7a565b82525050565b5f6020820190506141e45f8301846141c2565b92915050565b7f4e487b71000000000000000000000000000000000000000000000000000000005f52602260045260245ffd5b5f600282049050600182168061422e57607f821691505b602082108103614241576142406141ea565b5b50919050565b5f81905092915050565b5f61425b826134d2565b6142658185614247565b93506142758185602086016134ec565b80840191505092915050565b5f61428c8284614251565b915081905092915050565b7f4e487b71000000000000000000000000000000000000000000000000000000005f52603260045260245ffd5b5f819050815f5260205f209050919050565b5f81546142e281614217565b6142ec8186614247565b9450600182165f8114614306576001811461431b5761434d565b60ff198316865281151582028601935061434d565b614324856142c4565b5f5b8381101561434557815481890152600182019150602081019050614326565b838801955050505b50505092915050565b5f61436182846142d6565b915081905092915050565b7f4e487b71000000000000000000000000000000000000000000000000000000005f52601160045260245ffd5b5f6143a382613474565b91507fffffffffffffffffffffffffffffffffffffffffffffffffffffffffffffffff82036143d5576143d461436c565b5b600182019050919050565b7f4163636573732064656e6965643a2045534355454c415f524f4c4520726571755f8201527f6972656400000000000000000000000000000000000000000000000000000000602082015250565b5f61443a6024836134dc565b9150614445826143e0565b604082019050919050565b5f6020820190508181035f8301526144678161442e565b9050919050565b5f6144798385614247565b9350614486838584613612565b82840190509392505050565b5f61449e82848661446e565b91508190509392505050565b7f4e6574626f6f6b206e6f7420666f756e640000000000000000000000000000005f82015250565b5f6144de6011836134dc565b91506144e9826144aa565b602082019050919050565b5f6020820190508181035f83015261450b816144d2565b9050919050565b7f496e76616c696420737461746520666f722073747564656e742061737369676e5f8201527f6d656e7400000000000000000000000000000000000000000000000000000000602082015250565b5f61456c6024836134dc565b915061457782614512565b604082019050919050565b5f6020820190508181035f83015261459981614560565b9050919050565b5f6020601f8301049050919050565b5f82821b905092915050565b5f600883026145ea7fffffffffffffffffffffffffffffffffffffffffffffffffffffffffffffffff826145af565b6145f486836145af565b95508019841693508086168417925050509392505050565b5f819050919050565b5f61462f61462a61462584613474565b61460c565b613474565b9050919050565b5f819050919050565b61464883614615565b61465c61465482614636565b8484546145bb565b825550505050565b5f5f905090565b614673614664565b61467e81848461463f565b505050565b5b818110156146a1576146965f8261466b565b600181019050614684565b5050565b601f8211156146e6576146b7816142c4565b6146c0846145a0565b810160208510156146cf578190505b6146e36146db856145a0565b830182614683565b50505b505050565b5f82821c905092915050565b5f6147065f19846008026146eb565b1980831691505092915050565b5f61471e83836146f7565b9150826002028217905092915050565b614737826134d2565b67ffffffffffffffff8111156147505761474f61356a565b5b61475a8254614217565b6147658282856146a5565b5f60209050601f831160018114614796575f8415614784578287015190505b61478e8582614713565b8655506147f5565b601f1984166147a4866142c4565b5f5b828110156147cb578489015182556001820191506020850194506020810190506147a6565b868310156147e857848901516147e4601f8916826146f7565b8355505b6001600288020188555050505b505050505050565b5f8160601b9050919050565b5f614813826147fd565b9050919050565b5f61482482614809565b9050919050565b61483c61483782613913565b61481a565b82525050565b5f819050919050565b61485c61485782613474565b614842565b82525050565b7f73747564656e745f61737369676e6d656e7400000000000000000000000000005f82015250565b5f614896601283614247565b91506148a182614862565b601282019050919050565b5f6148b7828761482b565b6014820191506148c7828661484b565b6020820191506148d882848661446e565b91506148e38261488a565b915081905095945050505050565b5f82905092915050565b61490583836148f1565b67ffffffffffffffff81111561491e5761491d61356a565b5b6149288254614217565b6149338282856146a5565b5f601f831160018114614960575f841561494e578287013590505b6149588582614713565b8655506149bf565b601f19841661496e866142c4565b5f5b8281101561499557848901358255600182019150602085019450602081019050614970565b868310156149b257848901356149ae601f8916826146f7565b8355505b6001600288020188555050505b50505050505050565b5f6040820190506149db5f83018561375b565b6149e8602083018461375b565b9392505050565b5f6149fa83856134dc565b9350614a07838584613612565b614a10836134fa565b840190509392505050565b5f614a276012836134dc565b9150614a3282614862565b602082019050919050565b5f6060820190508181035f830152614a568185876149ef565b90508181036020830152614a6981614a1b565b90508181036040830152614a7d818461350a565b9050949350505050565b7f73746174655f7472616e736974696f6e000000000000000000000000000000005f82015250565b5f614abb6010836134dc565b9150614ac682614a87565b602082019050919050565b7f53575f56414c494441444f202d3e2044495354524942554944410000000000005f82015250565b5f614b05601a836134dc565b9150614b1082614ad1565b602082019050919050565b5f6060820190508181035f830152614b348184866149ef565b90508181036020830152614b4781614aaf565b90508181036040830152614b5a81614af9565b90509392505050565b7f4163636573732064656e6965643a205445434e49434f5f53575f524f4c4520725f8201527f6571756972656400000000000000000000000000000000000000000000000000602082015250565b5f614bbd6027836134dc565b9150614bc882614b63565b604082019050919050565b5f6020820190508181035f830152614bea81614bb1565b9050919050565b7f496e76616c696420737461746520666f7220736f6674776172652076616c69645f8201527f6174696f6e000000000000000000000000000000000000000000000000000000602082015250565b5f614c4b6025836134dc565b9150614c5682614bf1565b604082019050919050565b5f6020820190508181035f830152614c7881614c3f565b9050919050565b7f736f6674776172655f76616c69646174696f6e000000000000000000000000005f82015250565b5f614cb3601383614247565b9150614cbe82614c7f565b601382019050919050565b5f614cd4828761482b565b601482019150614ce4828661484b565b602082019150614cf582848661446e565b9150614d0082614ca7565b915081905095945050505050565b5f6020820190508181035f830152614d278184866149ef565b90509392505050565b5f614d3c6013836134dc565b9150614d4782614c7f565b602082019050919050565b5f6060820190508181035f830152614d6b8185876149ef565b90508181036020830152614d7e81614d30565b90508181036040830152614d92818461350a565b9050949350505050565b7f48575f4150524f4241444f202d3e2053575f56414c494441444f0000000000005f82015250565b5f614dd0601a836134dc565b9150614ddb82614d9c565b602082019050919050565b5f6060820190508181035f830152614dff8184866149ef565b90508181036020830152614e1281614aaf565b90508181036040830152614e2581614dc4565b90509392505050565b7f464142524943414e5445000000000000000000000000000000000000000000005f82015250565b5f614e62600a83614247565b9150614e6d82614e2e565b600a82019050919050565b5f614e8282614e56565b9150819050919050565b7f41554449544f525f4857000000000000000000000000000000000000000000005f82015250565b5f614ec0600a83614247565b9150614ecb82614e8c565b600a82019050919050565b5f614ee082614eb4565b9150819050919050565b7f5445434e49434f5f5357000000000000000000000000000000000000000000005f82015250565b5f614f1e600a83614247565b9150614f2982614eea565b600a82019050919050565b5f614f3e82614f12565b9150819050919050565b7f45534355454c41000000000000000000000000000000000000000000000000005f82015250565b5f614f7c600783614247565b9150614f8782614f48565b600782019050919050565b5f614f9c82614f70565b9150819050919050565b7f41444d494e0000000000000000000000000000000000000000000000000000005f82015250565b5f614fda600583614247565b9150614fe582614fa6565b600582019050919050565b5f614ffa82614fce565b9150819050919050565b7f44454641554c545f41444d494e000000000000000000000000000000000000005f82015250565b5f615038600d83614247565b915061504382615004565b600d82019050919050565b5f6150588261502c565b9150819050919050565b7f4d414e41474552000000000000000000000000000000000000000000000000005f82015250565b5f615096600783614247565b91506150a182615062565b600782019050919050565b5f6150b68261508a565b9150819050919050565b7f4f574e45520000000000000000000000000000000000000000000000000000005f82015250565b5f6150f4600583614247565b91506150ff826150c0565b600582019050919050565b5f615114826150e8565b9150819050919050565b7f496e76616c696420726f6c6520747970650000000000000000000000000000005f82015250565b5f6151526011836134dc565b915061515d8261511e565b602082019050919050565b5f6020820190508181035f83015261517f81615146565b9050919050565b7f4163636573732064656e6965643a20464142524943414e54455f524f4c4520725f8201527f6571756972656400000000000000000000000000000000000000000000000000602082015250565b5f6151e06027836134dc565b91506151eb82615186565b604082019050919050565b5f6020820190508181035f83015261520d816151d4565b9050919050565b7f4172726179206c656e677468206d69736d6174636800000000000000000000005f82015250565b5f6152486015836134dc565b915061525382615214565b602082019050919050565b5f6020820190508181035f8301526152758161523c565b9050919050565b5f5ffd5b5f5ffd5b5f5ffd5b5f5f833560016020038436030381126152a4576152a361527c565b5b80840192508235915067ffffffffffffffff8211156152c6576152c5615280565b5b6020830192506001820236038313156152e2576152e1615284565b5b509250929050565b7f496e76616c69642073657269616c206e756d62657200000000000000000000005f82015250565b5f61531e6015836134dc565b9150615329826152ea565b602082019050919050565b5f6020820190508181035f83015261534b81615312565b9050919050565b7f4e6574626f6f6b20616c726561647920726567697374657265640000000000005f82015250565b5f615386601a836134dc565b915061539182615352565b602082019050919050565b5f6020820190508181035f8301526153b38161537a565b9050919050565b5f6153c5828761482b565b6014820191506153d5828661484b565b6020820191506153e682848661446e565b915081905095945050505050565b7f696e697469616c5f7374617465000000000000000000000000000000000000005f82015250565b5f615428600d836134dc565b9150615433826153f4565b602082019050919050565b7f46414252494341444100000000000000000000000000000000000000000000005f82015250565b5f6154726009836134dc565b915061547d8261543e565b602082019050919050565b5f6060820190508181035f8301526154a18184866149ef565b905081810360208301526154b48161541c565b905081810360408301526154c781615466565b90509392505050565b7f6d657461646174610000000000000000000000000000000000000000000000005f82015250565b5f6155046008836134dc565b915061550f826154d0565b602082019050919050565b5f6060820190508181035f8301526155338185876149ef565b90508181036020830152615546816154f8565b9050818103604083015261555a818461350a565b9050949350505050565b7f4163636573732064656e6965643a2041554449544f525f48575f524f4c4520725f8201527f6571756972656400000000000000000000000000000000000000000000000000602082015250565b5f6155be6027836134dc565b91506155c982615564565b604082019050919050565b5f6020820190508181035f8301526155eb816155b2565b9050919050565b7f496e76616c696420737461746520666f722068617264776172652061756469745f82015250565b5f6156266020836134dc565b9150615631826155f2565b602082019050919050565b5f6020820190508181035f8301526156538161561a565b9050919050565b7f68617264776172655f61756469740000000000000000000000000000000000005f82015250565b5f61568e600e83614247565b91506156998261565a565b600e82019050919050565b5f6156af828761482b565b6014820191506156bf828661484b565b6020820191506156d082848661446e565b91506156db82615682565b915081905095945050505050565b5f6156f5600e836134dc565b91506157008261565a565b602082019050919050565b5f6060820190508181035f8301526157248185876149ef565b90508181036020830152615737816156e9565b9050818103604083015261574b818461350a565b9050949350505050565b7f464142524943414441202d3e2048575f4150524f4241444f00000000000000005f82015250565b5f6157896018836134dc565b915061579482615755565b602082019050919050565b5f6060820190508181035f8301526157b88184866149ef565b905081810360208301526157cb81614aaf565b905081810360408301526157de8161577d565b90509392505050565b5f6040820190506157fa5f830185613bfb565b615807602083018461375b565b9392505050565b5f61581882613474565b915061582383613474565b925082820390508181111561583b5761583a61436c565b5b92915050565b7f4e487b71000000000000000000000000000000000000000000000000000000005f52603160045260245ffdfea26469706673582212206a5a17cad7453ddec67ac7d60b66a9145e4caacef466acdd11349e967fec6e0864736f6c634300081e0033","linkReferences":{}},"methodIdentifiers":{"AUDITOR_HW_ROLE()":"69abb1d4","DEFAULT_ADMIN_ROLE()":"a217fddf","ESCUELA_ROLE()":"8a56fd33","FABRICANTE_ROLE()":"c9d9e6b1","TECNICO_SW_ROLE()":"d25c992a","allSerialNumbers(uint256)":"80a4721e","assignToStudent(string,bytes32,bytes32,string)":"36853f76","auditHardware(string,bool,bytes32,string)":"b141ac86","getAllMembers(bytes32)":"a9619e09","getAllSerialNumbers()":"e01fe367","getNetbookReport(string)":"a7aaac72","getNetbookState(string)":"cd282306","getNetbooksByState(uint8)":"2e935f33","getRoleAdmin(bytes32)":"248a9ca3","getRoleByName(string)":"53a9020e","getRoleMember(bytes32,uint256)":"9010d07c","getRoleMemberCount(bytes32)":"ca15c873","getRoleMembers(bytes32)":"a3246ad3","getSerialNumber(uint256)":"9bd905f8","getTokenId(string)":"1e7663bc","getTokenMetadata(uint256)":"60316801","grantRole(bytes32,address)":"2f2ff15d","hasRole(bytes32,address)":"91d14854","registerNetbooks(string[],string[],string[],string[])":"ae80ba80","renounceRole(bytes32,address)":"36568abe","revokeRole(bytes32,address)":"d547741f","serialToTokenId(string)":"59163635","supportsInterface(bytes4)":"01ffc9a7","tokenIdToSerial(uint256)":"0cc13601","totalNetbooks()":"6b22d859","transactionToSerial(bytes32)":"e94e3923","validateSoftware(string,string,bool,string)":"4ace00c8"},"id":31}