{"abi":[{"type":"constructor","inputs":[],"stateMutability":"nonpayable"},{"type":"function","name":"AUDITOR_HW_ROLE","inputs":[],"outputs":[{"name":"","type":"bytes32","internalType":"bytes32"}],"stateMutability":"view"},{"type":"function","name":"DEFAULT_ADMIN_ROLE","inputs":[],"outputs":[{"name":"","type":"bytes32","internalType":"bytes32"}],"stateMutability":"view"},{"type":"function","name":"ESCUELA_ROLE","inputs":[],"outputs":[{"name":"","type":"bytes32","internalType":"bytes32"}],"stateMutability":"view"},{"type":"function","name":"FABRICANTE_ROLE","inputs":[],"outputs":[{"name":"","type":"bytes32","internalType":"bytes32"}],"stateMutability":"view"},{"type":"function","name":"TECNICO_SW_ROLE","inputs":[],"outputs":[{"name":"","type":"bytes32","internalType":"bytes32"}],"stateMutability":"view"},{"type":"function","name":"allSerialNumbers","inputs":[{"name":"","type":"uint256","internalType":"uint256"}],"outputs":[{"name":"","type":"string","internalType":"string"}],"stateMutability":"view"},{"type":"function","name":"assignToStudent","inputs":[{"name":"serial","type":"string","internalType":"string"},{"name":"schoolHash","type":"bytes32","internalType":"bytes32"},{"name":"studentHash","type":"bytes32","internalType":"bytes32"}],"outputs":[],"stateMutability":"nonpayable"},{"type":"function","name":"auditHardware","inputs":[{"name":"serial","type":"string","internalType":"string"},{"name":"passed","type":"bool","internalType":"bool"},{"name":"reportHash","type":"bytes32","internalType":"bytes32"}],"outputs":[],"stateMutability":"nonpayable"},{"type":"function","name":"balanceOf","inputs":[{"name":"","type":"address","internalType":"address"}],"outputs":[{"name":"","type":"uint256","internalType":"uint256"}],"stateMutability":"pure"},{"type":"function","name":"decimals","inputs":[],"outputs":[{"name":"","type":"uint8","internalType":"uint8"}],"stateMutability":"pure"},{"type":"function","name":"getAllMembers","inputs":[{"name":"role","type":"bytes32","internalType":"bytes32"}],"outputs":[{"name":"","type":"address[]","internalType":"address[]"}],"stateMutability":"view"},{"type":"function","name":"getAllSerialNumbers","inputs":[],"outputs":[{"name":"","type":"string[]","internalType":"string[]"}],"stateMutability":"view"},{"type":"function","name":"getNetbookReport","inputs":[{"name":"serial","type":"string","internalType":"string"}],"outputs":[{"name":"","type":"tuple","internalType":"struct SupplyChainTracker.Netbook","components":[{"name":"serialNumber","type":"string","internalType":"string"},{"name":"batchId","type":"string","internalType":"string"},{"name":"initialModelSpecs","type":"string","internalType":"string"},{"name":"hwAuditor","type":"address","internalType":"address"},{"name":"hwIntegrityPassed","type":"bool","internalType":"bool"},{"name":"hwReportHash","type":"bytes32","internalType":"bytes32"},{"name":"swTechnician","type":"address","internalType":"address"},{"name":"osVersion","type":"string","internalType":"string"},{"name":"swValidationPassed","type":"bool","internalType":"bool"},{"name":"destinationSchoolHash","type":"bytes32","internalType":"bytes32"},{"name":"studentIdHash","type":"bytes32","internalType":"bytes32"},{"name":"distributionTimestamp","type":"uint256","internalType":"uint256"},{"name":"currentState","type":"uint8","internalType":"enum SupplyChainTracker.State"},{"name":"exists","type":"bool","internalType":"bool"}]}],"stateMutability":"view"},{"type":"function","name":"getNetbookState","inputs":[{"name":"serial","type":"string","internalType":"string"}],"outputs":[{"name":"","type":"uint8","internalType":"enum SupplyChainTracker.State"}],"stateMutability":"view"},{"type":"function","name":"getNetbooksByState","inputs":[{"name":"state","type":"uint8","internalType":"enum SupplyChainTracker.State"}],"outputs":[{"name":"","type":"string[]","internalType":"string[]"}],"stateMutability":"view"},{"type":"function","name":"getRoleAdmin","inputs":[{"name":"role","type":"bytes32","internalType":"bytes32"}],"outputs":[{"name":"","type":"bytes32","internalType":"bytes32"}],"stateMutability":"view"},{"type":"function","name":"getRoleByName","inputs":[{"name":"roleType","type":"string","internalType":"string"}],"outputs":[{"name":"","type":"bytes32","internalType":"bytes32"}],"stateMutability":"pure"},{"type":"function","name":"getRoleMember","inputs":[{"name":"role","type":"bytes32","internalType":"bytes32"},{"name":"index","type":"uint256","internalType":"uint256"}],"outputs":[{"name":"","type":"address","internalType":"address"}],"stateMutability":"view"},{"type":"function","name":"getRoleMemberCount","inputs":[{"name":"role","type":"bytes32","internalType":"bytes32"}],"outputs":[{"name":"","type":"uint256","internalType":"uint256"}],"stateMutability":"view"},{"type":"function","name":"getRoleMembers","inputs":[{"name":"role","type":"bytes32","internalType":"bytes32"}],"outputs":[{"name":"","type":"address[]","internalType":"address[]"}],"stateMutability":"view"},{"type":"function","name":"grantRole","inputs":[{"name":"role","type":"bytes32","internalType":"bytes32"},{"name":"account","type":"address","internalType":"address"}],"outputs":[],"stateMutability":"nonpayable"},{"type":"function","name":"grantRole","inputs":[{"name":"account","type":"address","internalType":"address"},{"name":"roleType","type":"string","internalType":"string"}],"outputs":[],"stateMutability":"nonpayable"},{"type":"function","name":"hasRole","inputs":[{"name":"roleType","type":"string","internalType":"string"},{"name":"account","type":"address","internalType":"address"}],"outputs":[{"name":"","type":"bool","internalType":"bool"}],"stateMutability":"view"},{"type":"function","name":"hasRole","inputs":[{"name":"role","type":"bytes32","internalType":"bytes32"},{"name":"account","type":"address","internalType":"address"}],"outputs":[{"name":"","type":"bool","internalType":"bool"}],"stateMutability":"view"},{"type":"function","name":"name","inputs":[],"outputs":[{"name":"","type":"string","internalType":"string"}],"stateMutability":"pure"},{"type":"function","name":"registerNetbooks","inputs":[{"name":"serials","type":"string[]","internalType":"string[]"},{"name":"batches","type":"string[]","internalType":"string[]"},{"name":"specs","type":"string[]","internalType":"string[]"}],"outputs":[],"stateMutability":"nonpayable"},{"type":"function","name":"renounceRole","inputs":[{"name":"role","type":"bytes32","internalType":"bytes32"},{"name":"callerConfirmation","type":"address","internalType":"address"}],"outputs":[],"stateMutability":"nonpayable"},{"type":"function","name":"revokeRole","inputs":[{"name":"account","type":"address","internalType":"address"},{"name":"roleType","type":"string","internalType":"string"}],"outputs":[],"stateMutability":"nonpayable"},{"type":"function","name":"revokeRole","inputs":[{"name":"role","type":"bytes32","internalType":"bytes32"},{"name":"account","type":"address","internalType":"address"}],"outputs":[],"stateMutability":"nonpayable"},{"type":"function","name":"supportsInterface","inputs":[{"name":"interfaceId","type":"bytes4","internalType":"bytes4"}],"outputs":[{"name":"","type":"bool","internalType":"bool"}],"stateMutability":"view"},{"type":"function","name":"symbol","inputs":[],"outputs":[{"name":"","type":"string","internalType":"string"}],"stateMutability":"pure"},{"type":"function","name":"totalNetbooks","inputs":[],"outputs":[{"name":"","type":"uint256","internalType":"uint256"}],"stateMutability":"view"},{"type":"function","name":"totalSupply","inputs":[],"outputs":[{"name":"","type":"uint256","internalType":"uint256"}],"stateMutability":"pure"},{"type":"function","name":"validateSoftware","inputs":[{"name":"serial","type":"string","internalType":"string"},{"name":"osVersion","type":"string","internalType":"string"},{"name":"passed","type":"bool","internalType":"bool"}],"outputs":[],"stateMutability":"nonpayable"},{"type":"event","name":"HardwareAudited","inputs":[{"name":"serialNumber","type":"string","indexed":false,"internalType":"string"},{"name":"auditor","type":"address","indexed":false,"internalType":"address"},{"name":"passed","type":"bool","indexed":false,"internalType":"bool"}],"anonymous":false},{"type":"event","name":"NetbookAssigned","inputs":[{"name":"serialNumber","type":"string","indexed":false,"internalType":"string"},{"name":"schoolHash","type":"bytes32","indexed":false,"internalType":"bytes32"},{"name":"studentHash","type":"bytes32","indexed":false,"internalType":"bytes32"}],"anonymous":false},{"type":"event","name":"NetbookRegistered","inputs":[{"name":"serialNumber","type":"string","indexed":false,"internalType":"string"},{"name":"batchId","type":"string","indexed":false,"internalType":"string"},{"name":"manufacturer","type":"address","indexed":false,"internalType":"address"}],"anonymous":false},{"type":"event","name":"RoleAdminChanged","inputs":[{"name":"role","type":"bytes32","indexed":true,"internalType":"bytes32"},{"name":"previousAdminRole","type":"bytes32","indexed":true,"internalType":"bytes32"},{"name":"newAdminRole","type":"bytes32","indexed":true,"internalType":"bytes32"}],"anonymous":false},{"type":"event","name":"RoleGranted","inputs":[{"name":"role","type":"bytes32","indexed":true,"internalType":"bytes32"},{"name":"account","type":"address","indexed":true,"internalType":"address"},{"name":"sender","type":"address","indexed":true,"internalType":"address"}],"anonymous":false},{"type":"event","name":"RoleRevoked","inputs":[{"name":"role","type":"bytes32","indexed":true,"internalType":"bytes32"},{"name":"account","type":"address","indexed":true,"internalType":"address"},{"name":"sender","type":"address","indexed":true,"internalType":"address"}],"anonymous":false},{"type":"event","name":"SoftwareValidated","inputs":[{"name":"serialNumber","type":"string","indexed":false,"internalType":"string"},{"name":"technician","type":"address","indexed":false,"internalType":"address"},{"name":"osVersion","type":"string","indexed":false,"internalType":"string"}],"anonymous":false},{"type":"error","name":"AccessControlBadConfirmation","inputs":[]},{"type":"error","name":"AccessControlUnauthorizedAccount","inputs":[{"name":"account","type":"address","internalType":"address"},{"name":"neededRole","type":"bytes32","internalType":"bytes32"}]}],"bytecode":{"object":"0x608060405234801561000f575f5ffd5b506100225f5f1b3361002860201b60201c565b50610290565b5f5f61003a848461007160201b60201c565b90508015610067576100658360015f8781526020019081526020015f2061016660201b90919060201c565b505b8091505092915050565b5f610082838361019960201b60201c565b61015c5760015f5f8581526020019081526020015f205f015f8473ffffffffffffffffffffffffffffffffffffffff1673ffffffffffffffffffffffffffffffffffffffff1681526020019081526020015f205f6101000a81548160ff0219169083151502179055506100f96101fc60201b60201c565b73ffffffffffffffffffffffffffffffffffffffff168273ffffffffffffffffffffffffffffffffffffffff16847f2f8788117e7eff1d82e926ec794901d17c78024a50270940304540a733656f0d60405160405180910390a460019050610160565b5f90505b92915050565b5f610191835f018373ffffffffffffffffffffffffffffffffffffffff165f1b61020360201b60201c565b905092915050565b5f5f5f8481526020019081526020015f205f015f8373ffffffffffffffffffffffffffffffffffffffff1673ffffffffffffffffffffffffffffffffffffffff1681526020019081526020015f205f9054906101000a900460ff16905092915050565b5f33905090565b5f610214838361027060201b60201c565b61026657825f0182908060018154018082558091505060019003905f5260205f20015f9091909190915055825f0180549050836001015f8481526020019081526020015f20819055506001905061026a565b5f90505b92915050565b5f5f836001015f8481526020019081526020015f20541415905092915050565b6145188061029d5f395ff3fe608060405234801561000f575f5ffd5b5060043610610204575f3560e01c806391d1485411610118578063a9619e09116100ab578063ca15c8731161007a578063ca15c87314610636578063cd28230614610666578063d25c992a14610696578063d547741f146106b4578063e01fe367146106d057610204565b8063a9619e09146105b0578063b111330f146105e0578063bddba4eb146105fc578063c9d9e6b11461061857610204565b8063a217fddf116100e7578063a217fddf14610516578063a28e9c5514610534578063a3246ad314610550578063a7aaac721461058057610204565b806391d14854146104905780639474807e146104c057806395d89b41146104dc5780639ccac8f5146104fa57610204565b806336568abe1161019b5780636c9cd0971161016a5780636c9cd097146103b257806370a08231146103e257806380a4721e146104125780638a56fd33146104425780639010d07c1461046057610204565b806336568abe1461032a57806353a9020e1461034657806369abb1d4146103765780636b22d8591461039457610204565b8063248a9ca3116101d7578063248a9ca3146102905780632e935f33146102c05780632f2ff15d146102f0578063313ce5671461030c57610204565b806301ffc9a71461020857806306fdde0314610238578063087895211461025657806318160ddd14610272575b5f5ffd5b610222600480360381019061021d9190612c07565b6106ee565b60405161022f9190612c4c565b60405180910390f35b610240610767565b60405161024d9190612cd5565b60405180910390f35b610270600480360381019061026b9190612db0565b6107a4565b005b61027a6107cf565b6040516102879190612e25565b60405180910390f35b6102aa60048036038101906102a59190612e71565b6107d6565b6040516102b79190612eab565b60405180910390f35b6102da60048036038101906102d59190612ee7565b6107f2565b6040516102e79190613015565b60405180910390f35b61030a60048036038101906103059190613035565b610a5d565b005b610314610a7f565b604051610321919061308e565b60405180910390f35b610344600480360381019061033f9190613035565b610a86565b005b610360600480360381019061035b91906130a7565b610b01565b60405161036d9190612eab565b60405180910390f35b61037e610e8f565b60405161038b9190612eab565b60405180910390f35b61039c610eb3565b6040516103a99190612e25565b60405180910390f35b6103cc60048036038101906103c791906130f2565b610ebf565b6040516103d99190612c4c565b60405180910390f35b6103fc60048036038101906103f7919061314f565b610ee1565b6040516104099190612e25565b60405180910390f35b61042c600480360381019061042791906131a4565b610eea565b6040516104399190612cd5565b60405180910390f35b61044a610f90565b6040516104579190612eab565b60405180910390f35b61047a600480360381019061047591906131cf565b610fb4565b604051610487919061321c565b60405180910390f35b6104aa60048036038101906104a59190613035565b610fe0565b6040516104b79190612c4c565b60405180910390f35b6104da60048036038101906104d5919061328a565b611043565b005b6104e46116d7565b6040516104f19190612cd5565b60405180910390f35b610514600480360381019061050f9190613364565b6116ed565b005b61051e611925565b60405161052b9190612eab565b60405180910390f35b61054e600480360381019061054991906133f5565b61192b565b005b61056a60048036038101906105659190612e71565b611b0a565b604051610577919061351d565b60405180910390f35b61059a600480360381019061059591906130a7565b611b2c565b6040516105a7919061371d565b60405180910390f35b6105ca60048036038101906105c59190612e71565b611f73565b6040516105d7919061351d565b60405180910390f35b6105fa60048036038101906105f5919061373d565b612049565b005b61061660048036038101906106119190612db0565b612273565b005b61062061229e565b60405161062d9190612eab565b60405180910390f35b610650600480360381019061064b9190612e71565b6122c2565b60405161065d9190612e25565b60405180910390f35b610680600480360381019061067b91906130a7565b6122e3565b60405161068d91906137bd565b60405180910390f35b61069e61238c565b6040516106ab9190612eab565b60405180910390f35b6106ce60048036038101906106c99190613035565b6123b0565b005b6106d86123d2565b6040516106e59190613015565b60405180910390f35b5f7f5a05180f000000000000000000000000000000000000000000000000000000007bffffffffffffffffffffffffffffffffffffffffffffffffffffffff1916827bffffffffffffffffffffffffffffffffffffffffffffffffffffffff19161480610760575061075f826124a6565b5b9050919050565b60606040518060400160405280601281526020017f537570706c79436861696e547261636b65720000000000000000000000000000815250905090565b5f5f1b6107b08161251f565b5f6107bb8484610b01565b90506107c78186612533565b505050505050565b5f5f905090565b5f5f5f8381526020019081526020015f20600101549050919050565b60605f5f90505f5f90505b6003805490508110156108995783600381111561081d5761081c61356a565b5b600260038381548110610833576108326137d6565b5b905f5260205f200160405161084891906138fc565b9081526020016040518091039020600b015f9054906101000a900460ff1660038111156108785761087761356a565b5b0361088c5781806108889061393f565b9250505b80806001019150506107fd565b505f8167ffffffffffffffff8111156108b5576108b4613986565b5b6040519080825280602002602001820160405280156108e857816020015b60608152602001906001900390816108d35790505b5090505f5f90505f5f90505b600380549050811015610a51578560038111156109145761091361356a565b5b60026003838154811061092a576109296137d6565b5b905f5260205f200160405161093f91906138fc565b9081526020016040518091039020600b015f9054906101000a900460ff16600381111561096f5761096e61356a565b5b03610a445760038181548110610988576109876137d6565b5b905f5260205f2001805461099b90613830565b80601f01602080910402602001604051908101604052809291908181526020018280546109c790613830565b8015610a125780601f106109e957610100808354040283529160200191610a12565b820191905f5260205f20905b8154815290600101906020018083116109f557829003601f168201915b5050505050838381518110610a2a57610a296137d6565b5b60200260200101819052508180610a409061393f565b9250505b80806001019150506108f4565b50819350505050919050565b610a66826107d6565b610a6f8161251f565b610a798383612576565b50505050565b5f5f905090565b610a8e6125b9565b73ffffffffffffffffffffffffffffffffffffffff168173ffffffffffffffffffffffffffffffffffffffff1614610af2576040517f6697b23200000000000000000000000000000000000000000000000000000000815260040160405180910390fd5b610afc8282612533565b505050565b5f604051602001610b11906139fd565b604051602081830303815290604052805190602001208383604051602001610b3a929190613a43565b6040516020818303038152906040528051906020012003610b7d577fbe0c84bfff967b2deb88bd0540d4a796d0ebfdcb72262ced26f1892b419e64579050610e89565b604051602001610b8c90613aa5565b604051602081830303815290604052805190602001208383604051602001610bb5929190613a43565b6040516020818303038152906040528051906020012003610bf8577f49c0376dc7caa3eab0c186e9bc20bf968b0724fea74a37706c35f59bc5d8b15b9050610e89565b604051602001610c0790613b03565b604051602081830303815290604052805190602001208383604051602001610c30929190613a43565b6040516020818303038152906040528051906020012003610c73577feeb4ddf6a0e2f06cb86713282a0b88ee789709e92a08b9e9b4ce816bbb13fcaf9050610e89565b604051602001610c8290613b61565b604051602081830303815290604052805190602001208383604051602001610cab929190613a43565b6040516020818303038152906040528051906020012003610cee577fa8f5858ea94a9ede7bc5dd04119dcc24b3b02a20be15d673993d8b6c2a901ef99050610e89565b604051602001610cfd90613bbf565b604051602081830303815290604052805190602001208383604051602001610d26929190613a43565b604051602081830303815290604052805190602001201480610d935750604051602001610d5290613c1d565b604051602081830303815290604052805190602001208383604051602001610d7b929190613a43565b60405160208183030381529060405280519060200120145b80610de95750604051602001610da890613c7b565b604051602081830303815290604052805190602001208383604051602001610dd1929190613a43565b60405160208183030381529060405280519060200120145b80610e3f5750604051602001610dfe90613cd9565b604051602081830303815290604052805190602001208383604051602001610e27929190613a43565b60405160208183030381529060405280519060200120145b15610e4e575f5f1b9050610e89565b6040517f08c379a0000000000000000000000000000000000000000000000000000000008152600401610e8090613d37565b60405180910390fd5b92915050565b7f49c0376dc7caa3eab0c186e9bc20bf968b0724fea74a37706c35f59bc5d8b15b81565b5f600380549050905090565b5f5f610ecb8585610b01565b9050610ed78184610fe0565b9150509392505050565b5f5f9050919050565b60038181548110610ef9575f80fd5b905f5260205f20015f915090508054610f1190613830565b80601f0160208091040260200160405190810160405280929190818152602001828054610f3d90613830565b8015610f885780601f10610f5f57610100808354040283529160200191610f88565b820191905f5260205f20905b815481529060010190602001808311610f6b57829003601f168201915b505050505081565b7fa8f5858ea94a9ede7bc5dd04119dcc24b3b02a20be15d673993d8b6c2a901ef981565b5f610fd88260015f8681526020019081526020015f206125c090919063ffffffff16565b905092915050565b5f5f5f8481526020019081526020015f205f015f8373ffffffffffffffffffffffffffffffffffffffff1673ffffffffffffffffffffffffffffffffffffffff1681526020019081526020015f205f9054906101000a900460ff16905092915050565b61106d7fbe0c84bfff967b2deb88bd0540d4a796d0ebfdcb72262ced26f1892b419e645733610fe0565b6110ac576040517f08c379a00000000000000000000000000000000000000000000000000000000081526004016110a390613d9f565b60405180910390fd5b83839050868690501480156110c657508181905086869050145b611105576040517f08c379a00000000000000000000000000000000000000000000000000000000081526004016110fc90613e07565b60405180910390fd5b5f5f90505b868690508110156116ce575f878783818110611129576111286137d6565b5b905060200281019061113b9190613e31565b90501161117d576040517f08c379a000000000000000000000000000000000000000000000000000000000815260040161117490613edd565b60405180910390fd5b6002878783818110611192576111916137d6565b5b90506020028101906111a49190613e31565b6040516111b2929190613a43565b9081526020016040518091039020600b0160019054906101000a900460ff1615611211576040517f08c379a000000000000000000000000000000000000000000000000000000000815260040161120890613f45565b60405180910390fd5b604051806101c001604052808888848181106112305761122f6137d6565b5b90506020028101906112429190613e31565b8080601f0160208091040260200160405190810160405280939291908181526020018383808284375f81840152601f19601f82011690508083019250505050505050815260200186868481811061129c5761129b6137d6565b5b90506020028101906112ae9190613e31565b8080601f0160208091040260200160405190810160405280939291908181526020018383808284375f81840152601f19601f820116905080830192505050505050508152602001848484818110611308576113076137d6565b5b905060200281019061131a9190613e31565b8080601f0160208091040260200160405190810160405280939291908181526020018383808284375f81840152601f19601f8201169050808301925050505050505081526020015f73ffffffffffffffffffffffffffffffffffffffff1681526020015f151581526020015f5f1b81526020015f73ffffffffffffffffffffffffffffffffffffffff16815260200160405180602001604052805f81525081526020015f151581526020015f5f1b81526020015f5f1b81526020015f81526020015f60038111156113ee576113ed61356a565b5b815260200160011515815250600288888481811061140f5761140e6137d6565b5b90506020028101906114219190613e31565b60405161142f929190613a43565b90815260200160405180910390205f820151815f01908161145091906140f1565b50602082015181600101908161146691906140f1565b50604082015181600201908161147c91906140f1565b506060820151816003015f6101000a81548173ffffffffffffffffffffffffffffffffffffffff021916908373ffffffffffffffffffffffffffffffffffffffff16021790555060808201518160030160146101000a81548160ff02191690831515021790555060a0820151816004015560c0820151816005015f6101000a81548173ffffffffffffffffffffffffffffffffffffffff021916908373ffffffffffffffffffffffffffffffffffffffff16021790555060e082015181600601908161154891906140f1565b50610100820151816007015f6101000a81548160ff0219169083151502179055506101208201518160080155610140820151816009015561016082015181600a015561018082015181600b015f6101000a81548160ff021916908360038111156115b5576115b461356a565b5b02179055506101a082015181600b0160016101000a81548160ff02191690831515021790555090505060038787838181106115f3576115f26137d6565b5b90506020028101906116059190613e31565b90918060018154018082558091505060019003905f5260205f20015f90919290919290919290919250918261163b9291906141ca565b507f2b7a0a6261ee6288ab0cae65d66eaaf6751e3b95766279e61aafd3ee645bce618787838181106116705761166f6137d6565b5b90506020028101906116829190613e31565b878785818110611695576116946137d6565b5b90506020028101906116a79190613e31565b336040516116b99594939291906142c3565b60405180910390a1808060010191505061110a565b50505050505050565b606060405180602001604052805f815250905090565b6117177feeb4ddf6a0e2f06cb86713282a0b88ee789709e92a08b9e9b4ce816bbb13fcaf33610fe0565b611756576040517f08c379a000000000000000000000000000000000000000000000000000000000815260040161174d90613d9f565b60405180910390fd5b5f60028686604051611769929190613a43565b9081526020016040518091039020905080600b0160019054906101000a900460ff166117ca576040517f08c379a00000000000000000000000000000000000000000000000000000000081526004016117c190613edd565b60405180910390fd5b600160038111156117de576117dd61356a565b5b81600b015f9054906101000a900460ff1660038111156118015761180061356a565b5b14611841576040517f08c379a00000000000000000000000000000000000000000000000000000000081526004016118389061437a565b60405180910390fd5b33816005015f6101000a81548173ffffffffffffffffffffffffffffffffffffffff021916908373ffffffffffffffffffffffffffffffffffffffff16021790555083838260060191826118969291906141ca565b5081816007015f6101000a81548160ff021916908315150217905550600281600b015f6101000a81548160ff021916908360038111156118d9576118d861356a565b5b02179055507fdb120272cbc7bb48f3d9132fbea9bf6c41e73247b75325291d86bceb88b97cc78686338787604051611915959493929190614398565b60405180910390a1505050505050565b5f5f1b81565b6119557fa8f5858ea94a9ede7bc5dd04119dcc24b3b02a20be15d673993d8b6c2a901ef933610fe0565b611994576040517f08c379a000000000000000000000000000000000000000000000000000000000815260040161198b90613d9f565b60405180910390fd5b5f600285856040516119a7929190613a43565b9081526020016040518091039020905080600b0160019054906101000a900460ff16611a08576040517f08c379a00000000000000000000000000000000000000000000000000000000081526004016119ff90613edd565b60405180910390fd5b60026003811115611a1c57611a1b61356a565b5b81600b015f9054906101000a900460ff166003811115611a3f57611a3e61356a565b5b14611a7f576040517f08c379a0000000000000000000000000000000000000000000000000000000008152600401611a769061437a565b60405180910390fd5b8281600801819055508181600901819055504281600a0181905550600381600b015f6101000a81548160ff02191690836003811115611ac157611ac061356a565b5b02179055507f44b0ed872d580d3158a262762e125af254f3d13be344d019e836ab42bbea472085858585604051611afb94939291906143df565b60405180910390a15050505050565b6060611b2560015f8481526020019081526020015f206125d7565b9050919050565b611b34612b01565b60028383604051611b46929190613a43565b9081526020016040518091039020600b0160019054906101000a900460ff16611ba4576040517f08c379a0000000000000000000000000000000000000000000000000000000008152600401611b9b90613edd565b60405180910390fd5b60028383604051611bb6929190613a43565b9081526020016040518091039020604051806101c00160405290815f82018054611bdf90613830565b80601f0160208091040260200160405190810160405280929190818152602001828054611c0b90613830565b8015611c565780601f10611c2d57610100808354040283529160200191611c56565b820191905f5260205f20905b815481529060010190602001808311611c3957829003601f168201915b50505050508152602001600182018054611c6f90613830565b80601f0160208091040260200160405190810160405280929190818152602001828054611c9b90613830565b8015611ce65780601f10611cbd57610100808354040283529160200191611ce6565b820191905f5260205f20905b815481529060010190602001808311611cc957829003601f168201915b50505050508152602001600282018054611cff90613830565b80601f0160208091040260200160405190810160405280929190818152602001828054611d2b90613830565b8015611d765780601f10611d4d57610100808354040283529160200191611d76565b820191905f5260205f20905b815481529060010190602001808311611d5957829003601f168201915b50505050508152602001600382015f9054906101000a900473ffffffffffffffffffffffffffffffffffffffff1673ffffffffffffffffffffffffffffffffffffffff1673ffffffffffffffffffffffffffffffffffffffff1681526020016003820160149054906101000a900460ff1615151515815260200160048201548152602001600582015f9054906101000a900473ffffffffffffffffffffffffffffffffffffffff1673ffffffffffffffffffffffffffffffffffffffff1673ffffffffffffffffffffffffffffffffffffffff168152602001600682018054611e5e90613830565b80601f0160208091040260200160405190810160405280929190818152602001828054611e8a90613830565b8015611ed55780601f10611eac57610100808354040283529160200191611ed5565b820191905f5260205f20905b815481529060010190602001808311611eb857829003601f168201915b50505050508152602001600782015f9054906101000a900460ff161515151581526020016008820154815260200160098201548152602001600a8201548152602001600b82015f9054906101000a900460ff166003811115611f3a57611f3961356a565b5b6003811115611f4c57611f4b61356a565b5b8152602001600b820160019054906101000a900460ff161515151581525050905092915050565b60605f611f7f836122c2565b90505f8167ffffffffffffffff811115611f9c57611f9b613986565b5b604051908082528060200260200182016040528015611fca5781602001602082028036833780820191505090505b5090505f5f90505b8281101561203e57611fe48582610fb4565b828281518110611ff757611ff66137d6565b5b602002602001019073ffffffffffffffffffffffffffffffffffffffff16908173ffffffffffffffffffffffffffffffffffffffff16815250508080600101915050611fd2565b508092505050919050565b6120737f49c0376dc7caa3eab0c186e9bc20bf968b0724fea74a37706c35f59bc5d8b15b33610fe0565b6120b2576040517f08c379a00000000000000000000000000000000000000000000000000000000081526004016120a990613d9f565b60405180910390fd5b5f600285856040516120c5929190613a43565b9081526020016040518091039020905080600b0160019054906101000a900460ff16612126576040517f08c379a000000000000000000000000000000000000000000000000000000000815260040161211d90613edd565b60405180910390fd5b5f60038111156121395761213861356a565b5b81600b015f9054906101000a900460ff16600381111561215c5761215b61356a565b5b1461219c576040517f08c379a00000000000000000000000000000000000000000000000000000000081526004016121939061437a565b60405180910390fd5b33816003015f6101000a81548173ffffffffffffffffffffffffffffffffffffffff021916908373ffffffffffffffffffffffffffffffffffffffff160217905550828160030160146101000a81548160ff021916908315150217905550818160040181905550600181600b015f6101000a81548160ff0219169083600381111561222a5761222961356a565b5b02179055507f3eb9473c1d0acffcd27dbadb1e3c9cfb681da18cb301f1ee86e0449533198af885853386604051612264949392919061441d565b60405180910390a15050505050565b5f5f1b61227f8161251f565b5f61228a8484610b01565b90506122968186612576565b505050505050565b7fbe0c84bfff967b2deb88bd0540d4a796d0ebfdcb72262ced26f1892b419e645781565b5f6122dc60015f8481526020019081526020015f206125f6565b9050919050565b5f600283836040516122f6929190613a43565b9081526020016040518091039020600b0160019054906101000a900460ff16612354576040517f08c379a000000000000000000000000000000000000000000000000000000000815260040161234b90613edd565b60405180910390fd5b60028383604051612366929190613a43565b9081526020016040518091039020600b015f9054906101000a900460ff16905092915050565b7feeb4ddf6a0e2f06cb86713282a0b88ee789709e92a08b9e9b4ce816bbb13fcaf81565b6123b9826107d6565b6123c28161251f565b6123cc8383612533565b50505050565b60606003805480602002602001604051908101604052809291908181526020015f905b8282101561249d578382905f5260205f2001805461241290613830565b80601f016020809104026020016040519081016040528092919081815260200182805461243e90613830565b80156124895780601f1061246057610100808354040283529160200191612489565b820191905f5260205f20905b81548152906001019060200180831161246c57829003601f168201915b5050505050815260200190600101906123f5565b50505050905090565b5f7f7965db0b000000000000000000000000000000000000000000000000000000007bffffffffffffffffffffffffffffffffffffffffffffffffffffffff1916827bffffffffffffffffffffffffffffffffffffffffffffffffffffffff19161480612518575061251782612609565b5b9050919050565b6125308161252b6125b9565b612672565b50565b5f5f61253f84846126c3565b9050801561256c5761256a8360015f8781526020019081526020015f206127ac90919063ffffffff16565b505b8091505092915050565b5f5f61258284846127d9565b905080156125af576125ad8360015f8781526020019081526020015f206128c290919063ffffffff16565b505b8091505092915050565b5f33905090565b5f6125cd835f01836128ef565b5f1c905092915050565b60605f6125e5835f01612916565b905060608190508092505050919050565b5f612602825f0161296f565b9050919050565b5f7f01ffc9a7000000000000000000000000000000000000000000000000000000007bffffffffffffffffffffffffffffffffffffffffffffffffffffffff1916827bffffffffffffffffffffffffffffffffffffffffffffffffffffffff1916149050919050565b61267c8282610fe0565b6126bf5780826040517fe2517d3f0000000000000000000000000000000000000000000000000000000081526004016126b692919061445b565b60405180910390fd5b5050565b5f6126ce8383610fe0565b156127a2575f5f5f8581526020019081526020015f205f015f8473ffffffffffffffffffffffffffffffffffffffff1673ffffffffffffffffffffffffffffffffffffffff1681526020019081526020015f205f6101000a81548160ff02191690831515021790555061273f6125b9565b73ffffffffffffffffffffffffffffffffffffffff168273ffffffffffffffffffffffffffffffffffffffff16847ff6391f5c32d9c69d2a47ea670b442974b53935d1edc7fd64eb21e047a839171b60405160405180910390a4600190506127a6565b5f90505b92915050565b5f6127d1835f018373ffffffffffffffffffffffffffffffffffffffff165f1b61297e565b905092915050565b5f6127e48383610fe0565b6128b85760015f5f8581526020019081526020015f205f015f8473ffffffffffffffffffffffffffffffffffffffff1673ffffffffffffffffffffffffffffffffffffffff1681526020019081526020015f205f6101000a81548160ff0219169083151502179055506128556125b9565b73ffffffffffffffffffffffffffffffffffffffff168273ffffffffffffffffffffffffffffffffffffffff16847f2f8788117e7eff1d82e926ec794901d17c78024a50270940304540a733656f0d60405160405180910390a4600190506128bc565b5f90505b92915050565b5f6128e7835f018373ffffffffffffffffffffffffffffffffffffffff165f1b612a7a565b905092915050565b5f825f018281548110612905576129046137d6565b5b905f5260205f200154905092915050565b6060815f0180548060200260200160405190810160405280929190818152602001828054801561296357602002820191905f5260205f20905b81548152602001906001019080831161294f575b50505050509050919050565b5f815f01805490509050919050565b5f5f836001015f8481526020019081526020015f205490505f8114612a6f575f6001826129ab9190614482565b90505f6001865f01805490506129c19190614482565b9050808214612a27575f865f0182815481106129e0576129df6137d6565b5b905f5260205f200154905080875f018481548110612a0157612a006137d6565b5b905f5260205f20018190555083876001015f8381526020019081526020015f2081905550505b855f01805480612a3a57612a396144b5565b5b600190038181905f5260205f20015f90559055856001015f8681526020019081526020015f205f905560019350505050612a74565b5f9150505b92915050565b5f612a858383612ae1565b612ad757825f0182908060018154018082558091505060019003905f5260205f20015f9091909190915055825f0180549050836001015f8481526020019081526020015f208190555060019050612adb565b5f90505b92915050565b5f5f836001015f8481526020019081526020015f20541415905092915050565b604051806101c001604052806060815260200160608152602001606081526020015f73ffffffffffffffffffffffffffffffffffffffff1681526020015f151581526020015f81526020015f73ffffffffffffffffffffffffffffffffffffffff168152602001606081526020015f151581526020015f81526020015f81526020015f81526020015f6003811115612b9c57612b9b61356a565b5b81526020015f151581525090565b5f5ffd5b5f5ffd5b5f7fffffffff0000000000000000000000000000000000000000000000000000000082169050919050565b612be681612bb2565b8114612bf0575f5ffd5b50565b5f81359050612c0181612bdd565b92915050565b5f60208284031215612c1c57612c1b612baa565b5b5f612c2984828501612bf3565b91505092915050565b5f8115159050919050565b612c4681612c32565b82525050565b5f602082019050612c5f5f830184612c3d565b92915050565b5f81519050919050565b5f82825260208201905092915050565b8281835e5f83830152505050565b5f601f19601f8301169050919050565b5f612ca782612c65565b612cb18185612c6f565b9350612cc1818560208601612c7f565b612cca81612c8d565b840191505092915050565b5f6020820190508181035f830152612ced8184612c9d565b905092915050565b5f73ffffffffffffffffffffffffffffffffffffffff82169050919050565b5f612d1e82612cf5565b9050919050565b612d2e81612d14565b8114612d38575f5ffd5b50565b5f81359050612d4981612d25565b92915050565b5f5ffd5b5f5ffd5b5f5ffd5b5f5f83601f840112612d7057612d6f612d4f565b5b8235905067ffffffffffffffff811115612d8d57612d8c612d53565b5b602083019150836001820283011115612da957612da8612d57565b5b9250929050565b5f5f5f60408486031215612dc757612dc6612baa565b5b5f612dd486828701612d3b565b935050602084013567ffffffffffffffff811115612df557612df4612bae565b5b612e0186828701612d5b565b92509250509250925092565b5f819050919050565b612e1f81612e0d565b82525050565b5f602082019050612e385f830184612e16565b92915050565b5f819050919050565b612e5081612e3e565b8114612e5a575f5ffd5b50565b5f81359050612e6b81612e47565b92915050565b5f60208284031215612e8657612e85612baa565b5b5f612e9384828501612e5d565b91505092915050565b612ea581612e3e565b82525050565b5f602082019050612ebe5f830184612e9c565b92915050565b60048110612ed0575f5ffd5b50565b5f81359050612ee181612ec4565b92915050565b5f60208284031215612efc57612efb612baa565b5b5f612f0984828501612ed3565b91505092915050565b5f81519050919050565b5f82825260208201905092915050565b5f819050602082019050919050565b5f82825260208201905092915050565b5f612f5582612c65565b612f5f8185612f3b565b9350612f6f818560208601612c7f565b612f7881612c8d565b840191505092915050565b5f612f8e8383612f4b565b905092915050565b5f602082019050919050565b5f612fac82612f12565b612fb68185612f1c565b935083602082028501612fc885612f2c565b805f5b858110156130035784840389528151612fe48582612f83565b9450612fef83612f96565b925060208a01995050600181019050612fcb565b50829750879550505050505092915050565b5f6020820190508181035f83015261302d8184612fa2565b905092915050565b5f5f6040838503121561304b5761304a612baa565b5b5f61305885828601612e5d565b925050602061306985828601612d3b565b9150509250929050565b5f60ff82169050919050565b61308881613073565b82525050565b5f6020820190506130a15f83018461307f565b92915050565b5f5f602083850312156130bd576130bc612baa565b5b5f83013567ffffffffffffffff8111156130da576130d9612bae565b5b6130e685828601612d5b565b92509250509250929050565b5f5f5f6040848603121561310957613108612baa565b5b5f84013567ffffffffffffffff81111561312657613125612bae565b5b61313286828701612d5b565b9350935050602061314586828701612d3b565b9150509250925092565b5f6020828403121561316457613163612baa565b5b5f61317184828501612d3b565b91505092915050565b61318381612e0d565b811461318d575f5ffd5b50565b5f8135905061319e8161317a565b92915050565b5f602082840312156131b9576131b8612baa565b5b5f6131c684828501613190565b91505092915050565b5f5f604083850312156131e5576131e4612baa565b5b5f6131f285828601612e5d565b925050602061320385828601613190565b9150509250929050565b61321681612d14565b82525050565b5f60208201905061322f5f83018461320d565b92915050565b5f5f83601f84011261324a57613249612d4f565b5b8235905067ffffffffffffffff81111561326757613266612d53565b5b60208301915083602082028301111561328357613282612d57565b5b9250929050565b5f5f5f5f5f5f606087890312156132a4576132a3612baa565b5b5f87013567ffffffffffffffff8111156132c1576132c0612bae565b5b6132cd89828a01613235565b9650965050602087013567ffffffffffffffff8111156132f0576132ef612bae565b5b6132fc89828a01613235565b9450945050604087013567ffffffffffffffff81111561331f5761331e612bae565b5b61332b89828a01613235565b92509250509295509295509295565b61334381612c32565b811461334d575f5ffd5b50565b5f8135905061335e8161333a565b92915050565b5f5f5f5f5f6060868803121561337d5761337c612baa565b5b5f86013567ffffffffffffffff81111561339a57613399612bae565b5b6133a688828901612d5b565b9550955050602086013567ffffffffffffffff8111156133c9576133c8612bae565b5b6133d588828901612d5b565b935093505060406133e888828901613350565b9150509295509295909350565b5f5f5f5f6060858703121561340d5761340c612baa565b5b5f85013567ffffffffffffffff81111561342a57613429612bae565b5b61343687828801612d5b565b9450945050602061344987828801612e5d565b925050604061345a87828801612e5d565b91505092959194509250565b5f81519050919050565b5f82825260208201905092915050565b5f819050602082019050919050565b61349881612d14565b82525050565b5f6134a9838361348f565b60208301905092915050565b5f602082019050919050565b5f6134cb82613466565b6134d58185613470565b93506134e083613480565b805f5b838110156135105781516134f7888261349e565b9750613502836134b5565b9250506001810190506134e3565b5085935050505092915050565b5f6020820190508181035f83015261353581846134c1565b905092915050565b61354681612c32565b82525050565b61355581612e3e565b82525050565b61356481612e0d565b82525050565b7f4e487b71000000000000000000000000000000000000000000000000000000005f52602160045260245ffd5b600481106135a8576135a761356a565b5b50565b5f8190506135b882613597565b919050565b5f6135c7826135ab565b9050919050565b6135d7816135bd565b82525050565b5f6101c083015f8301518482035f8601526135f88282612f4b565b915050602083015184820360208601526136128282612f4b565b9150506040830151848203604086015261362c8282612f4b565b9150506060830151613641606086018261348f565b506080830151613654608086018261353d565b5060a083015161366760a086018261354c565b5060c083015161367a60c086018261348f565b5060e083015184820360e08601526136928282612f4b565b9150506101008301516136a961010086018261353d565b506101208301516136be61012086018261354c565b506101408301516136d361014086018261354c565b506101608301516136e861016086018261355b565b506101808301516136fd6101808601826135ce565b506101a08301516137126101a086018261353d565b508091505092915050565b5f6020820190508181035f83015261373581846135dd565b905092915050565b5f5f5f5f6060858703121561375557613754612baa565b5b5f85013567ffffffffffffffff81111561377257613771612bae565b5b61377e87828801612d5b565b9450945050602061379187828801613350565b92505060406137a287828801612e5d565b91505092959194509250565b6137b7816135bd565b82525050565b5f6020820190506137d05f8301846137ae565b92915050565b7f4e487b71000000000000000000000000000000000000000000000000000000005f52603260045260245ffd5b7f4e487b71000000000000000000000000000000000000000000000000000000005f52602260045260245ffd5b5f600282049050600182168061384757607f821691505b60208210810361385a57613859613803565b5b50919050565b5f81905092915050565b5f819050815f5260205f209050919050565b5f815461388881613830565b6138928186613860565b9450600182165f81146138ac57600181146138c1576138f3565b60ff19831686528115158202860193506138f3565b6138ca8561386a565b5f5b838110156138eb578154818901526001820191506020810190506138cc565b838801955050505b50505092915050565b5f613907828461387c565b915081905092915050565b7f4e487b71000000000000000000000000000000000000000000000000000000005f52601160045260245ffd5b5f61394982612e0d565b91507fffffffffffffffffffffffffffffffffffffffffffffffffffffffffffffffff820361397b5761397a613912565b5b600182019050919050565b7f4e487b71000000000000000000000000000000000000000000000000000000005f52604160045260245ffd5b7f464142524943414e5445000000000000000000000000000000000000000000005f82015250565b5f6139e7600a83613860565b91506139f2826139b3565b600a82019050919050565b5f613a07826139db565b9150819050919050565b828183375f83830152505050565b5f613a2a8385613860565b9350613a37838584613a11565b82840190509392505050565b5f613a4f828486613a1f565b91508190509392505050565b7f41554449544f525f4857000000000000000000000000000000000000000000005f82015250565b5f613a8f600a83613860565b9150613a9a82613a5b565b600a82019050919050565b5f613aaf82613a83565b9150819050919050565b7f5445434e49434f5f5357000000000000000000000000000000000000000000005f82015250565b5f613aed600a83613860565b9150613af882613ab9565b600a82019050919050565b5f613b0d82613ae1565b9150819050919050565b7f45534355454c41000000000000000000000000000000000000000000000000005f82015250565b5f613b4b600783613860565b9150613b5682613b17565b600782019050919050565b5f613b6b82613b3f565b9150819050919050565b7f41444d494e0000000000000000000000000000000000000000000000000000005f82015250565b5f613ba9600583613860565b9150613bb482613b75565b600582019050919050565b5f613bc982613b9d565b9150819050919050565b7f44454641554c545f41444d494e000000000000000000000000000000000000005f82015250565b5f613c07600d83613860565b9150613c1282613bd3565b600d82019050919050565b5f613c2782613bfb565b9150819050919050565b7f4d414e41474552000000000000000000000000000000000000000000000000005f82015250565b5f613c65600783613860565b9150613c7082613c31565b600782019050919050565b5f613c8582613c59565b9150819050919050565b7f4f574e45520000000000000000000000000000000000000000000000000000005f82015250565b5f613cc3600583613860565b9150613cce82613c8f565b600582019050919050565b5f613ce382613cb7565b9150819050919050565b7f496e76616c696420726f6c6520747970650000000000000000000000000000005f82015250565b5f613d21601183612c6f565b9150613d2c82613ced565b602082019050919050565b5f6020820190508181035f830152613d4e81613d15565b9050919050565b7f41636365736f2064656e656761646f3a20726f6c2072657175657269646f00005f82015250565b5f613d89601e83612c6f565b9150613d9482613d55565b602082019050919050565b5f6020820190508181035f830152613db681613d7d565b9050919050565b7f4c6f6e676974756420646520617272617973206e6f20636f696e6369646500005f82015250565b5f613df1601e83612c6f565b9150613dfc82613dbd565b602082019050919050565b5f6020820190508181035f830152613e1e81613de5565b9050919050565b5f5ffd5b5f5ffd5b5f5ffd5b5f5f83356001602003843603038112613e4d57613e4c613e25565b5b80840192508235915067ffffffffffffffff821115613e6f57613e6e613e29565b5b602083019250600182023603831315613e8b57613e8a613e2d565b5b509250929050565b7f53657269616c206e6f2076616c69646f000000000000000000000000000000005f82015250565b5f613ec7601083612c6f565b9150613ed282613e93565b602082019050919050565b5f6020820190508181035f830152613ef481613ebb565b9050919050565b7f4e6574626f6f6b207961207265676973747261646100000000000000000000005f82015250565b5f613f2f601583612c6f565b9150613f3a82613efb565b602082019050919050565b5f6020820190508181035f830152613f5c81613f23565b9050919050565b5f6020601f8301049050919050565b5f82821b905092915050565b5f60088302613fad7fffffffffffffffffffffffffffffffffffffffffffffffffffffffffffffffff82613f72565b613fb78683613f72565b95508019841693508086168417925050509392505050565b5f819050919050565b5f613ff2613fed613fe884612e0d565b613fcf565b612e0d565b9050919050565b5f819050919050565b61400b83613fd8565b61401f61401782613ff9565b848454613f7e565b825550505050565b5f5f905090565b614036614027565b614041818484614002565b505050565b5b81811015614064576140595f8261402e565b600181019050614047565b5050565b601f8211156140a95761407a8161386a565b61408384613f63565b81016020851015614092578190505b6140a661409e85613f63565b830182614046565b50505b505050565b5f82821c905092915050565b5f6140c95f19846008026140ae565b1980831691505092915050565b5f6140e183836140ba565b9150826002028217905092915050565b6140fa82612c65565b67ffffffffffffffff81111561411357614112613986565b5b61411d8254613830565b614128828285614068565b5f60209050601f831160018114614159575f8415614147578287015190505b61415185826140d6565b8655506141b8565b601f1984166141678661386a565b5f5b8281101561418e57848901518255600182019150602085019450602081019050614169565b868310156141ab57848901516141a7601f8916826140ba565b8355505b6001600288020188555050505b505050505050565b5f82905092915050565b6141d483836141c0565b67ffffffffffffffff8111156141ed576141ec613986565b5b6141f78254613830565b614202828285614068565b5f601f83116001811461422f575f841561421d578287013590505b61422785826140d6565b86555061428e565b601f19841661423d8661386a565b5f5b828110156142645784890135825560018201915060208501945060208101905061423f565b86831015614281578489013561427d601f8916826140ba565b8355505b6001600288020188555050505b50505050505050565b5f6142a28385612c6f565b93506142af838584613a11565b6142b883612c8d565b840190509392505050565b5f6060820190508181035f8301526142dc818789614297565b905081810360208301526142f1818587614297565b9050614300604083018461320d565b9695505050505050565b7f45737461646f20696e636f72726563746f2070617261206573746120616363695f8201527f6f6e000000000000000000000000000000000000000000000000000000000000602082015250565b5f614364602283612c6f565b915061436f8261430a565b604082019050919050565b5f6020820190508181035f83015261439181614358565b9050919050565b5f6060820190508181035f8301526143b1818789614297565b90506143c0602083018661320d565b81810360408301526143d3818486614297565b90509695505050505050565b5f6060820190508181035f8301526143f8818688614297565b90506144076020830185612e9c565b6144146040830184612e9c565b95945050505050565b5f6060820190508181035f830152614436818688614297565b9050614445602083018561320d565b6144526040830184612c3d565b95945050505050565b5f60408201905061446e5f83018561320d565b61447b6020830184612e9c565b9392505050565b5f61448c82612e0d565b915061449783612e0d565b92508282039050818111156144af576144ae613912565b5b92915050565b7f4e487b71000000000000000000000000000000000000000000000000000000005f52603160045260245ffdfea2646970667358221220e56184eb115d23a79e000662bdb8fddbbcc7570b7c5215d7a6f0ba42125f4d8a64736f6c634300081e0033","linkReferences":{}},"methodIdentifiers":{"AUDITOR_HW_ROLE()":"69abb1d4","DEFAULT_ADMIN_ROLE()":"a217fddf","ESCUELA_ROLE()":"8a56fd33","FABRICANTE_ROLE()":"c9d9e6b1","TECNICO_SW_ROLE()":"d25c992a","allSerialNumbers(uint256)":"80a4721e","assignToStudent(string,bytes32,bytes32)":"a28e9c55","auditHardware(string,bool,bytes32)":"b111330f","balanceOf(address)":"70a08231","decimals()":"313ce567","getAllMembers(bytes32)":"a9619e09","getAllSerialNumbers()":"e01fe367","getNetbookReport(string)":"a7aaac72","getNetbookState(string)":"cd282306","getNetbooksByState(uint8)":"2e935f33","getRoleAdmin(bytes32)":"248a9ca3","getRoleByName(string)":"53a9020e","getRoleMember(bytes32,uint256)":"9010d07c","getRoleMemberCount(bytes32)":"ca15c873","getRoleMembers(bytes32)":"a3246ad3","grantRole(address,string)":"bddba4eb","grantRole(bytes32,address)":"2f2ff15d","hasRole(bytes32,address)":"91d14854","hasRole(string,address)":"6c9cd097","name()":"06fdde03","registerNetbooks(string[],string[],string[])":"9474807e","renounceRole(bytes32,address)":"36568abe","revokeRole(address,string)":"08789521","revokeRole(bytes32,address)":"d547741f","supportsInterface(bytes4)":"01ffc9a7","symbol()":"95d89b41","totalNetbooks()":"6b22d859","totalSupply()":"18160ddd","validateSoftware(string,string,bool)":"9ccac8f5"},"id":15}