{"abi":[{"type":"constructor","inputs":[],"stateMutability":"nonpayable"},{"type":"function","name":"AUDITOR_HW_ROLE","inputs":[],"outputs":[{"name":"","type":"bytes32","internalType":"bytes32"}],"stateMutability":"view"},{"type":"function","name":"DEFAULT_ADMIN_ROLE","inputs":[],"outputs":[{"name":"","type":"bytes32","internalType":"bytes32"}],"stateMutability":"view"},{"type":"function","name":"ESCUELA_ROLE","inputs":[],"outputs":[{"name":"","type":"bytes32","internalType":"bytes32"}],"stateMutability":"view"},{"type":"function","name":"FABRICANTE_ROLE","inputs":[],"outputs":[{"name":"","type":"bytes32","internalType":"bytes32"}],"stateMutability":"view"},{"type":"function","name":"TECNICO_SW_ROLE","inputs":[],"outputs":[{"name":"","type":"bytes32","internalType":"bytes32"}],"stateMutability":"view"},{"type":"function","name":"allSerialNumbers","inputs":[{"name":"","type":"uint256","internalType":"uint256"}],"outputs":[{"name":"","type":"string","internalType":"string"}],"stateMutability":"view"},{"type":"function","name":"assignToStudent","inputs":[{"name":"serial","type":"string","internalType":"string"},{"name":"schoolHash","type":"bytes32","internalType":"bytes32"},{"name":"studentHash","type":"bytes32","internalType":"bytes32"},{"name":"metadata","type":"string","internalType":"string"}],"outputs":[],"stateMutability":"nonpayable"},{"type":"function","name":"auditHardware","inputs":[{"name":"serial","type":"string","internalType":"string"},{"name":"passed","type":"bool","internalType":"bool"},{"name":"reportHash","type":"bytes32","internalType":"bytes32"},{"name":"metadata","type":"string","internalType":"string"}],"outputs":[],"stateMutability":"nonpayable"},{"type":"function","name":"getAllMembers","inputs":[{"name":"role","type":"bytes32","internalType":"bytes32"}],"outputs":[{"name":"","type":"address[]","internalType":"address[]"}],"stateMutability":"view"},{"type":"function","name":"getAllSerialNumbers","inputs":[],"outputs":[{"name":"","type":"string[]","internalType":"string[]"}],"stateMutability":"view"},{"type":"function","name":"getNetbookReport","inputs":[{"name":"serial","type":"string","internalType":"string"}],"outputs":[{"name":"","type":"tuple","internalType":"struct SupplyChainTracker.Netbook","components":[{"name":"serialNumber","type":"string","internalType":"string"},{"name":"batchId","type":"string","internalType":"string"},{"name":"initialModelSpecs","type":"string","internalType":"string"},{"name":"hwAuditor","type":"address","internalType":"address"},{"name":"hwIntegrityPassed","type":"bool","internalType":"bool"},{"name":"hwReportHash","type":"bytes32","internalType":"bytes32"},{"name":"swTechnician","type":"address","internalType":"address"},{"name":"osVersion","type":"string","internalType":"string"},{"name":"swValidationPassed","type":"bool","internalType":"bool"},{"name":"destinationSchoolHash","type":"bytes32","internalType":"bytes32"},{"name":"studentIdHash","type":"bytes32","internalType":"bytes32"},{"name":"distributionTimestamp","type":"uint256","internalType":"uint256"},{"name":"currentState","type":"uint8","internalType":"enum SupplyChainTracker.State"},{"name":"exists","type":"bool","internalType":"bool"},{"name":"tokenId","type":"uint256","internalType":"uint256"}]}],"stateMutability":"view"},{"type":"function","name":"getNetbookState","inputs":[{"name":"serial","type":"string","internalType":"string"}],"outputs":[{"name":"","type":"uint8","internalType":"enum SupplyChainTracker.State"}],"stateMutability":"view"},{"type":"function","name":"getNetbooksByState","inputs":[{"name":"state","type":"uint8","internalType":"enum SupplyChainTracker.State"}],"outputs":[{"name":"","type":"string[]","internalType":"string[]"}],"stateMutability":"view"},{"type":"function","name":"getRoleAdmin","inputs":[{"name":"role","type":"bytes32","internalType":"bytes32"}],"outputs":[{"name":"","type":"bytes32","internalType":"bytes32"}],"stateMutability":"view"},{"type":"function","name":"getRoleByName","inputs":[{"name":"roleType","type":"string","internalType":"string"}],"outputs":[{"name":"","type":"bytes32","internalType":"bytes32"}],"stateMutability":"pure"},{"type":"function","name":"getRoleMember","inputs":[{"name":"role","type":"bytes32","internalType":"bytes32"},{"name":"index","type":"uint256","internalType":"uint256"}],"outputs":[{"name":"","type":"address","internalType":"address"}],"stateMutability":"view"},{"type":"function","name":"getRoleMemberCount","inputs":[{"name":"role","type":"bytes32","internalType":"bytes32"}],"outputs":[{"name":"","type":"uint256","internalType":"uint256"}],"stateMutability":"view"},{"type":"function","name":"getSerialNumber","inputs":[{"name":"tokenId","type":"uint256","internalType":"uint256"}],"outputs":[{"name":"","type":"string","internalType":"string"}],"stateMutability":"view"},{"type":"function","name":"getTokenId","inputs":[{"name":"serialNumber","type":"string","internalType":"string"}],"outputs":[{"name":"","type":"uint256","internalType":"uint256"}],"stateMutability":"view"},{"type":"function","name":"getTokenMetadata","inputs":[{"name":"tokenId","type":"uint256","internalType":"uint256"}],"outputs":[{"name":"","type":"string","internalType":"string"}],"stateMutability":"view"},{"type":"function","name":"grantRole","inputs":[{"name":"role","type":"bytes32","internalType":"bytes32"},{"name":"account","type":"address","internalType":"address"}],"outputs":[],"stateMutability":"nonpayable"},{"type":"function","name":"hasRole","inputs":[{"name":"role","type":"bytes32","internalType":"bytes32"},{"name":"account","type":"address","internalType":"address"}],"outputs":[{"name":"","type":"bool","internalType":"bool"}],"stateMutability":"view"},{"type":"function","name":"registerNetbooks","inputs":[{"name":"serials","type":"string[]","internalType":"string[]"},{"name":"batches","type":"string[]","internalType":"string[]"},{"name":"specs","type":"string[]","internalType":"string[]"},{"name":"metadata","type":"string[]","internalType":"string[]"}],"outputs":[],"stateMutability":"nonpayable"},{"type":"function","name":"renounceRole","inputs":[{"name":"role","type":"bytes32","internalType":"bytes32"},{"name":"callerConfirmation","type":"address","internalType":"address"}],"outputs":[],"stateMutability":"nonpayable"},{"type":"function","name":"revokeRole","inputs":[{"name":"role","type":"bytes32","internalType":"bytes32"},{"name":"account","type":"address","internalType":"address"}],"outputs":[],"stateMutability":"nonpayable"},{"type":"function","name":"serialToTokenId","inputs":[{"name":"","type":"string","internalType":"string"}],"outputs":[{"name":"","type":"uint256","internalType":"uint256"}],"stateMutability":"view"},{"type":"function","name":"supportsInterface","inputs":[{"name":"interfaceId","type":"bytes4","internalType":"bytes4"}],"outputs":[{"name":"","type":"bool","internalType":"bool"}],"stateMutability":"view"},{"type":"function","name":"tokenIdToSerial","inputs":[{"name":"","type":"uint256","internalType":"uint256"}],"outputs":[{"name":"","type":"string","internalType":"string"}],"stateMutability":"view"},{"type":"function","name":"totalNetbooks","inputs":[],"outputs":[{"name":"","type":"uint256","internalType":"uint256"}],"stateMutability":"view"},{"type":"function","name":"transactionToSerial","inputs":[{"name":"","type":"bytes32","internalType":"bytes32"}],"outputs":[{"name":"","type":"string","internalType":"string"}],"stateMutability":"view"},{"type":"function","name":"validateSoftware","inputs":[{"name":"serial","type":"string","internalType":"string"},{"name":"osVersion","type":"string","internalType":"string"},{"name":"passed","type":"bool","internalType":"bool"},{"name":"metadata","type":"string","internalType":"string"}],"outputs":[],"stateMutability":"nonpayable"},{"type":"event","name":"HardwareAudited","inputs":[{"name":"serialNumber","type":"string","indexed":true,"internalType":"string"},{"name":"auditor","type":"address","indexed":true,"internalType":"address"},{"name":"passed","type":"bool","indexed":false,"internalType":"bool"}],"anonymous":false},{"type":"event","name":"NetbookAssigned","inputs":[{"name":"serialNumber","type":"string","indexed":true,"internalType":"string"},{"name":"schoolHash","type":"bytes32","indexed":false,"internalType":"bytes32"},{"name":"studentHash","type":"bytes32","indexed":false,"internalType":"bytes32"}],"anonymous":false},{"type":"event","name":"NetbookRegistered","inputs":[{"name":"serialNumber","type":"string","indexed":true,"internalType":"string"},{"name":"batchId","type":"string","indexed":false,"internalType":"string"},{"name":"manufacturer","type":"address","indexed":true,"internalType":"address"}],"anonymous":false},{"type":"event","name":"RoleAdminChanged","inputs":[{"name":"role","type":"bytes32","indexed":true,"internalType":"bytes32"},{"name":"previousAdminRole","type":"bytes32","indexed":true,"internalType":"bytes32"},{"name":"newAdminRole","type":"bytes32","indexed":true,"internalType":"bytes32"}],"anonymous":false},{"type":"event","name":"RoleGranted","inputs":[{"name":"role","type":"bytes32","indexed":true,"internalType":"bytes32"},{"name":"account","type":"address","indexed":true,"internalType":"address"},{"name":"sender","type":"address","indexed":true,"internalType":"address"}],"anonymous":false},{"type":"event","name":"RoleRevoked","inputs":[{"name":"role","type":"bytes32","indexed":true,"internalType":"bytes32"},{"name":"account","type":"address","indexed":true,"internalType":"address"},{"name":"sender","type":"address","indexed":true,"internalType":"address"}],"anonymous":false},{"type":"event","name":"SoftwareValidated","inputs":[{"name":"serialNumber","type":"string","indexed":true,"internalType":"string"},{"name":"technician","type":"address","indexed":true,"internalType":"address"},{"name":"osVersion","type":"string","indexed":false,"internalType":"string"}],"anonymous":false},{"type":"event","name":"TraceabilityDataUpdated","inputs":[{"name":"transactionHash","type":"bytes32","indexed":true,"internalType":"bytes32"},{"name":"serialNumber","type":"string","indexed":false,"internalType":"string"},{"name":"dataType","type":"string","indexed":false,"internalType":"string"},{"name":"dataValue","type":"string","indexed":false,"internalType":"string"}],"anonymous":false},{"type":"error","name":"AccessControlBadConfirmation","inputs":[]},{"type":"error","name":"AccessControlUnauthorizedAccount","inputs":[{"name":"account","type":"address","internalType":"address"},{"name":"neededRole","type":"bytes32","internalType":"bytes32"}]}],"bytecode":{"object":"0x608060405234801561000f575f5ffd5b506100225f5f1b3361002860201b60201c565b506102c2565b5f610039838361004160201b60201c565b905092915050565b5f5f610053848461008a60201b60201c565b905080156100805761007e8360015f8781526020019081526020015f2061017f60201b90919060201c565b505b8091505092915050565b5f61009b83836101b260201b60201c565b6101755760015f5f8581526020019081526020015f205f015f8473ffffffffffffffffffffffffffffffffffffffff1673ffffffffffffffffffffffffffffffffffffffff1681526020019081526020015f205f6101000a81548160ff0219169083151502179055506101126101cb60201b60201c565b73ffffffffffffffffffffffffffffffffffffffff168273ffffffffffffffffffffffffffffffffffffffff16847f2f8788117e7eff1d82e926ec794901d17c78024a50270940304540a733656f0d60405160405180910390a460019050610179565b5f90505b92915050565b5f6101aa835f018373ffffffffffffffffffffffffffffffffffffffff165f1b6101d260201b60201c565b905092915050565b5f6101c3838361023f60201b60201c565b905092915050565b5f33905090565b5f6101e383836102a260201b60201c565b61023557825f0182908060018154018082558091505060019003905f5260205f20015f9091909190915055825f0180549050836001015f8481526020019081526020015f208190555060019050610239565b5f90505b92915050565b5f5f5f8481526020019081526020015f205f015f8373ffffffffffffffffffffffffffffffffffffffff1673ffffffffffffffffffffffffffffffffffffffff1681526020019081526020015f205f9054906101000a900460ff16905092915050565b5f5f836001015f8481526020019081526020015f20541415905092915050565b6157cf806102cf5f395ff3fe608060405234801561000f575f5ffd5b50600436106101e3575f3560e01c80638a56fd331161010d578063b141ac86116100a0578063d25c992a1161006f578063d25c992a14610625578063d547741f14610643578063e01fe3671461065f578063e94e39231461067d576101e3565b8063b141ac861461058b578063c9d9e6b1146105a7578063ca15c873146105c5578063cd282306146105f5576101e3565b8063a217fddf116100dc578063a217fddf146104f1578063a7aaac721461050f578063a9619e091461053f578063ae80ba801461056f576101e3565b80638a56fd33146104435780639010d07c1461046157806391d14854146104915780639bd905f8146104c1576101e3565b806336853f7611610185578063603168011161015457806360316801146103a757806369abb1d4146103d75780636b22d859146103f557806380a4721e14610413576101e3565b806336853f761461030f5780634ace00c81461032b57806353a9020e146103475780635916363514610377576101e3565b8063248a9ca3116101c1578063248a9ca3146102775780632e935f33146102a75780632f2ff15d146102d757806336568abe146102f3576101e3565b806301ffc9a7146101e75780630cc13601146102175780631e7663bc14610247575b5f5ffd5b61020160048036038101906101fc9190613341565b6106ad565b60405161020e9190613386565b60405180910390f35b610231600480360381019061022c91906133d2565b6106be565b60405161023e919061346d565b60405180910390f35b610261600480360381019061025c91906135b9565b610759565b60405161026e919061360f565b60405180910390f35b610291600480360381019061028c919061365b565b610780565b60405161029e9190613695565b60405180910390f35b6102c160048036038101906102bc91906136d1565b61079c565b6040516102ce91906137ff565b60405180910390f35b6102f160048036038101906102ec9190613879565b610a07565b005b61030d60048036038101906103089190613879565b610a23565b005b61032960048036038101906103249190613914565b610a9e565b005b610345600480360381019061034091906139de565b610d82565b005b610361600480360381019061035c9190613a9d565b6110d4565b60405161036e9190613695565b60405180910390f35b610391600480360381019061038c91906135b9565b611462565b60405161039e919061360f565b60405180910390f35b6103c160048036038101906103bc91906133d2565b61148f565b6040516103ce919061346d565b60405180910390f35b6103df611530565b6040516103ec9190613695565b60405180910390f35b6103fd611554565b60405161040a919061360f565b60405180910390f35b61042d600480360381019061042891906133d2565b611560565b60405161043a919061346d565b60405180910390f35b61044b611606565b6040516104589190613695565b60405180910390f35b61047b60048036038101906104769190613ae8565b61162a565b6040516104889190613b35565b60405180910390f35b6104ab60048036038101906104a69190613879565b611656565b6040516104b89190613386565b60405180910390f35b6104db60048036038101906104d691906133d2565b611669565b6040516104e8919061346d565b60405180910390f35b6104f961170a565b6040516105069190613695565b60405180910390f35b61052960048036038101906105249190613a9d565b611710565b6040516105369190613d52565b60405180910390f35b6105596004803603810190610554919061365b565b611b61565b6040516105669190613e1a565b60405180910390f35b61058960048036038101906105849190613f6d565b611c37565b005b6105a560048036038101906105a0919061404d565b612566565b005b6105af6128aa565b6040516105bc9190613695565b60405180910390f35b6105df60048036038101906105da919061365b565b6128ce565b6040516105ec919061360f565b60405180910390f35b61060f600480360381019061060a9190613a9d565b6128ef565b60405161061c91906140fc565b60405180910390f35b61062d612998565b60405161063a9190613695565b60405180910390f35b61065d60048036038101906106589190613879565b6129bc565b005b6106676129d8565b60405161067491906137ff565b60405180910390f35b6106976004803603810190610692919061365b565b612aac565b6040516106a4919061346d565b60405180910390f35b5f6106b782612b47565b9050919050565b6003602052805f5260405f205f9150905080546106da90614142565b80601f016020809104026020016040519081016040528092919081815260200182805461070690614142565b80156107515780601f1061072857610100808354040283529160200191610751565b820191905f5260205f20905b81548152906001019060200180831161073457829003601f168201915b505050505081565b5f60028260405161076a91906141ac565b9081526020016040518091039020549050919050565b5f5f5f8381526020019081526020015f20600101549050919050565b60605f5f90505f5f90505b600780549050811015610843578360038111156107c7576107c6613b8a565b5b6006600783815481106107dd576107dc6141c2565b5b905f5260205f20016040516107f29190614281565b9081526020016040518091039020600b015f9054906101000a900460ff16600381111561082257610821613b8a565b5b03610836578180610832906142c4565b9250505b80806001019150506107a7565b505f8167ffffffffffffffff81111561085f5761085e613495565b5b60405190808252806020026020018201604052801561089257816020015b606081526020019060019003908161087d5790505b5090505f5f90505f5f90505b6007805490508110156109fb578560038111156108be576108bd613b8a565b5b6006600783815481106108d4576108d36141c2565b5b905f5260205f20016040516108e99190614281565b9081526020016040518091039020600b015f9054906101000a900460ff16600381111561091957610918613b8a565b5b036109ee5760078181548110610932576109316141c2565b5b905f5260205f2001805461094590614142565b80601f016020809104026020016040519081016040528092919081815260200182805461097190614142565b80156109bc5780601f10610993576101008083540402835291602001916109bc565b820191905f5260205f20905b81548152906001019060200180831161099f57829003601f168201915b50505050508383815181106109d4576109d36141c2565b5b602002602001018190525081806109ea906142c4565b9250505b808060010191505061089e565b50819350505050919050565b5f5f1b610a1381612bc0565b610a1d8383612bd4565b50505050565b610a2b612be7565b73ffffffffffffffffffffffffffffffffffffffff168173ffffffffffffffffffffffffffffffffffffffff1614610a8f576040517f6697b23200000000000000000000000000000000000000000000000000000000815260040160405180910390fd5b610a998282612bee565b505050565b610ac87fa8f5858ea94a9ede7bc5dd04119dcc24b3b02a20be15d673993d8b6c2a901ef933611656565b610b07576040517f08c379a0000000000000000000000000000000000000000000000000000000008152600401610afe9061437b565b60405180910390fd5b5f60068686604051610b1a9291906143bd565b9081526020016040518091039020905080600b0160019054906101000a900460ff16610b7b576040517f08c379a0000000000000000000000000000000000000000000000000000000008152600401610b729061441f565b60405180910390fd5b60026003811115610b8f57610b8e613b8a565b5b81600b015f9054906101000a900460ff166003811115610bb257610bb1613b8a565b5b14610bf2576040517f08c379a0000000000000000000000000000000000000000000000000000000008152600401610be9906144ad565b60405180910390fd5b8381600801819055508281600901819055504281600a0181905550600381600b015f6101000a81548160ff02191690836003811115610c3457610c33613b8a565b5b02179055505f81600c015490508260055f8381526020019081526020015f209081610c5f9190614659565b505f33428989604051602001610c7894939291906147d7565b604051602081830303815290604052805190602001209050878760085f8481526020019081526020015f209182610cb0929190614826565b508787604051610cc19291906143bd565b60405180910390207f44b0ed872d580d3158a262762e125af254f3d13be344d019e836ab42bbea47208787604051610cfa9291906148f3565b60405180910390a2807f92cbcd4ff01297a936f2aca89a7b6e567c2f20224247c06b12a4d81f75c845b0898987604051610d3693929190614968565b60405180910390a2807f92cbcd4ff01297a936f2aca89a7b6e567c2f20224247c06b12a4d81f75c845b08989604051610d70929190614a46565b60405180910390a25050505050505050565b610dac7feeb4ddf6a0e2f06cb86713282a0b88ee789709e92a08b9e9b4ce816bbb13fcaf33611656565b610deb576040517f08c379a0000000000000000000000000000000000000000000000000000000008152600401610de290614afe565b60405180910390fd5b5f60068787604051610dfe9291906143bd565b9081526020016040518091039020905080600b0160019054906101000a900460ff16610e5f576040517f08c379a0000000000000000000000000000000000000000000000000000000008152600401610e569061441f565b60405180910390fd5b60016003811115610e7357610e72613b8a565b5b81600b015f9054906101000a900460ff166003811115610e9657610e95613b8a565b5b14610ed6576040517f08c379a0000000000000000000000000000000000000000000000000000000008152600401610ecd90614b8c565b60405180910390fd5b33816005015f6101000a81548173ffffffffffffffffffffffffffffffffffffffff021916908373ffffffffffffffffffffffffffffffffffffffff1602179055508484826006019182610f2b929190614826565b5082816007015f6101000a81548160ff021916908315150217905550600281600b015f6101000a81548160ff02191690836003811115610f6e57610f6d613b8a565b5b02179055505f81600c015490508260055f8381526020019081526020015f209081610f999190614659565b505f33428a8a604051602001610fb29493929190614bf4565b604051602081830303815290604052805190602001209050888860085f8481526020019081526020015f209182610fea929190614826565b503373ffffffffffffffffffffffffffffffffffffffff1689896040516110129291906143bd565b60405180910390207fdb120272cbc7bb48f3d9132fbea9bf6c41e73247b75325291d86bceb88b97cc7898960405161104b929190614c39565b60405180910390a3807f92cbcd4ff01297a936f2aca89a7b6e567c2f20224247c06b12a4d81f75c845b08a8a8760405161108793929190614c7d565b60405180910390a2807f92cbcd4ff01297a936f2aca89a7b6e567c2f20224247c06b12a4d81f75c845b08a8a6040516110c1929190614d11565b60405180910390a2505050505050505050565b5f6040516020016110e490614da3565b60405160208183030381529060405280519060200120838360405160200161110d9291906143bd565b6040516020818303038152906040528051906020012003611150577fbe0c84bfff967b2deb88bd0540d4a796d0ebfdcb72262ced26f1892b419e6457905061145c565b60405160200161115f90614e01565b6040516020818303038152906040528051906020012083836040516020016111889291906143bd565b60405160208183030381529060405280519060200120036111cb577f49c0376dc7caa3eab0c186e9bc20bf968b0724fea74a37706c35f59bc5d8b15b905061145c565b6040516020016111da90614e5f565b6040516020818303038152906040528051906020012083836040516020016112039291906143bd565b6040516020818303038152906040528051906020012003611246577feeb4ddf6a0e2f06cb86713282a0b88ee789709e92a08b9e9b4ce816bbb13fcaf905061145c565b60405160200161125590614ebd565b60405160208183030381529060405280519060200120838360405160200161127e9291906143bd565b60405160208183030381529060405280519060200120036112c1577fa8f5858ea94a9ede7bc5dd04119dcc24b3b02a20be15d673993d8b6c2a901ef9905061145c565b6040516020016112d090614f1b565b6040516020818303038152906040528051906020012083836040516020016112f99291906143bd565b604051602081830303815290604052805190602001201480611366575060405160200161132590614f79565b60405160208183030381529060405280519060200120838360405160200161134e9291906143bd565b60405160208183030381529060405280519060200120145b806113bc575060405160200161137b90614fd7565b6040516020818303038152906040528051906020012083836040516020016113a49291906143bd565b60405160208183030381529060405280519060200120145b8061141257506040516020016113d190615035565b6040516020818303038152906040528051906020012083836040516020016113fa9291906143bd565b60405160208183030381529060405280519060200120145b15611421575f5f1b905061145c565b6040517f08c379a000000000000000000000000000000000000000000000000000000000815260040161145390615093565b60405180910390fd5b92915050565b6002818051602081018201805184825260208301602085012081835280955050505050505f915090505481565b606060055f8381526020019081526020015f2080546114ad90614142565b80601f01602080910402602001604051908101604052809291908181526020018280546114d990614142565b80156115245780601f106114fb57610100808354040283529160200191611524565b820191905f5260205f20905b81548152906001019060200180831161150757829003601f168201915b50505050509050919050565b7f49c0376dc7caa3eab0c186e9bc20bf968b0724fea74a37706c35f59bc5d8b15b81565b5f600780549050905090565b6007818154811061156f575f80fd5b905f5260205f20015f91509050805461158790614142565b80601f01602080910402602001604051908101604052809291908181526020018280546115b390614142565b80156115fe5780601f106115d5576101008083540402835291602001916115fe565b820191905f5260205f20905b8154815290600101906020018083116115e157829003601f168201915b505050505081565b7fa8f5858ea94a9ede7bc5dd04119dcc24b3b02a20be15d673993d8b6c2a901ef981565b5f61164e8260015f8681526020019081526020015f20612c0190919063ffffffff16565b905092915050565b5f6116618383612c18565b905092915050565b606060035f8381526020019081526020015f20805461168790614142565b80601f01602080910402602001604051908101604052809291908181526020018280546116b390614142565b80156116fe5780601f106116d5576101008083540402835291602001916116fe565b820191905f5260205f20905b8154815290600101906020018083116116e157829003601f168201915b50505050509050919050565b5f5f1b81565b61171861322c565b6006838360405161172a9291906143bd565b9081526020016040518091039020600b0160019054906101000a900460ff16611788576040517f08c379a000000000000000000000000000000000000000000000000000000000815260040161177f9061441f565b60405180910390fd5b6006838360405161179a9291906143bd565b9081526020016040518091039020604051806101e00160405290815f820180546117c390614142565b80601f01602080910402602001604051908101604052809291908181526020018280546117ef90614142565b801561183a5780601f106118115761010080835404028352916020019161183a565b820191905f5260205f20905b81548152906001019060200180831161181d57829003601f168201915b5050505050815260200160018201805461185390614142565b80601f016020809104026020016040519081016040528092919081815260200182805461187f90614142565b80156118ca5780601f106118a1576101008083540402835291602001916118ca565b820191905f5260205f20905b8154815290600101906020018083116118ad57829003601f168201915b505050505081526020016002820180546118e390614142565b80601f016020809104026020016040519081016040528092919081815260200182805461190f90614142565b801561195a5780601f106119315761010080835404028352916020019161195a565b820191905f5260205f20905b81548152906001019060200180831161193d57829003601f168201915b50505050508152602001600382015f9054906101000a900473ffffffffffffffffffffffffffffffffffffffff1673ffffffffffffffffffffffffffffffffffffffff1673ffffffffffffffffffffffffffffffffffffffff1681526020016003820160149054906101000a900460ff1615151515815260200160048201548152602001600582015f9054906101000a900473ffffffffffffffffffffffffffffffffffffffff1673ffffffffffffffffffffffffffffffffffffffff1673ffffffffffffffffffffffffffffffffffffffff168152602001600682018054611a4290614142565b80601f0160208091040260200160405190810160405280929190818152602001828054611a6e90614142565b8015611ab95780601f10611a9057610100808354040283529160200191611ab9565b820191905f5260205f20905b815481529060010190602001808311611a9c57829003601f168201915b50505050508152602001600782015f9054906101000a900460ff161515151581526020016008820154815260200160098201548152602001600a8201548152602001600b82015f9054906101000a900460ff166003811115611b1e57611b1d613b8a565b5b6003811115611b3057611b2f613b8a565b5b8152602001600b820160019054906101000a900460ff16151515158152602001600c82015481525050905092915050565b60605f611b6d836128ce565b90505f8167ffffffffffffffff811115611b8a57611b89613495565b5b604051908082528060200260200182016040528015611bb85781602001602082028036833780820191505090505b5090505f5f90505b82811015611c2c57611bd2858261162a565b828281518110611be557611be46141c2565b5b602002602001019073ffffffffffffffffffffffffffffffffffffffff16908173ffffffffffffffffffffffffffffffffffffffff16815250508080600101915050611bc0565b508092505050919050565b611c617fbe0c84bfff967b2deb88bd0540d4a796d0ebfdcb72262ced26f1892b419e645733611656565b611ca0576040517f08c379a0000000000000000000000000000000000000000000000000000000008152600401611c9790615121565b60405180910390fd5b8484905087879050148015611cba57508282905087879050145b8015611cc95750805187879050145b611d08576040517f08c379a0000000000000000000000000000000000000000000000000000000008152600401611cff90615189565b60405180910390fd5b5f5f90505b8787905081101561255c575f888883818110611d2c57611d2b6141c2565b5b9050602002810190611d3e91906151b3565b905011611d80576040517f08c379a0000000000000000000000000000000000000000000000000000000008152600401611d779061525f565b60405180910390fd5b6006888883818110611d9557611d946141c2565b5b9050602002810190611da791906151b3565b604051611db59291906143bd565b9081526020016040518091039020600b0160019054906101000a900460ff1615611e14576040517f08c379a0000000000000000000000000000000000000000000000000000000008152600401611e0b906152c7565b60405180910390fd5b5f600454905060045f815480929190611e2c906142c4565b9190505550604051806101e001604052808a8a85818110611e5057611e4f6141c2565b5b9050602002810190611e6291906151b3565b8080601f0160208091040260200160405190810160405280939291908181526020018383808284375f81840152601f19601f820116905080830192505050505050508152602001888885818110611ebc57611ebb6141c2565b5b9050602002810190611ece91906151b3565b8080601f0160208091040260200160405190810160405280939291908181526020018383808284375f81840152601f19601f820116905080830192505050505050508152602001868685818110611f2857611f276141c2565b5b9050602002810190611f3a91906151b3565b8080601f0160208091040260200160405190810160405280939291908181526020018383808284375f81840152601f19601f8201169050808301925050505050505081526020015f73ffffffffffffffffffffffffffffffffffffffff1681526020015f151581526020015f5f1b81526020015f73ffffffffffffffffffffffffffffffffffffffff16815260200160405180602001604052805f81525081526020015f151581526020015f5f1b81526020015f5f1b81526020015f81526020015f600381111561200e5761200d613b8a565b5b81526020016001151581526020018281525060068a8a85818110612035576120346141c2565b5b905060200281019061204791906151b3565b6040516120559291906143bd565b90815260200160405180910390205f820151815f0190816120769190614659565b50602082015181600101908161208c9190614659565b5060408201518160020190816120a29190614659565b506060820151816003015f6101000a81548173ffffffffffffffffffffffffffffffffffffffff021916908373ffffffffffffffffffffffffffffffffffffffff16021790555060808201518160030160146101000a81548160ff02191690831515021790555060a0820151816004015560c0820151816005015f6101000a81548173ffffffffffffffffffffffffffffffffffffffff021916908373ffffffffffffffffffffffffffffffffffffffff16021790555060e082015181600601908161216e9190614659565b50610100820151816007015f6101000a81548160ff0219169083151502179055506101208201518160080155610140820151816009015561016082015181600a015561018082015181600b015f6101000a81548160ff021916908360038111156121db576121da613b8a565b5b02179055506101a082015181600b0160016101000a81548160ff0219169083151502179055506101c082015181600c01559050508060028a8a85818110612225576122246141c2565b5b905060200281019061223791906151b3565b6040516122459291906143bd565b90815260200160405180910390208190555088888381811061226a576122696141c2565b5b905060200281019061227c91906151b3565b60035f8481526020019081526020015f20918261229a929190614826565b508282815181106122ae576122ad6141c2565b5b602002602001015160055f8381526020019081526020015f2090816122d39190614659565b505f33428b8b868181106122ea576122e96141c2565b5b90506020028101906122fc91906151b3565b60405160200161230f94939291906152e5565b60405160208183030381529060405280519060200120905089898481811061233a576123396141c2565b5b905060200281019061234c91906151b3565b60085f8481526020019081526020015f20918261236a929190614826565b5060078a8a858181106123805761237f6141c2565b5b905060200281019061239291906151b3565b90918060018154018082558091505060019003905f5260205f20015f9091929091929091929091925091826123c8929190614826565b503373ffffffffffffffffffffffffffffffffffffffff168a8a858181106123f3576123f26141c2565b5b905060200281019061240591906151b3565b6040516124139291906143bd565b60405180910390207f2b7a0a6261ee6288ab0cae65d66eaaf6751e3b95766279e61aafd3ee645bce618a8a8781811061244f5761244e6141c2565b5b905060200281019061246191906151b3565b60405161246f929190614c39565b60405180910390a3807f92cbcd4ff01297a936f2aca89a7b6e567c2f20224247c06b12a4d81f75c845b08b8b868181106124ac576124ab6141c2565b5b90506020028101906124be91906151b3565b6040516124cc9291906153b3565b60405180910390a2807f92cbcd4ff01297a936f2aca89a7b6e567c2f20224247c06b12a4d81f75c845b08b8b86818110612509576125086141c2565b5b905060200281019061251b91906151b3565b87878151811061252e5761252d6141c2565b5b602002602001015160405161254593929190615445565b60405180910390a250508080600101915050611d0d565b5050505050505050565b6125907f49c0376dc7caa3eab0c186e9bc20bf968b0724fea74a37706c35f59bc5d8b15b33611656565b6125cf576040517f08c379a00000000000000000000000000000000000000000000000000000000081526004016125c6906154ff565b60405180910390fd5b5f600686866040516125e29291906143bd565b9081526020016040518091039020905080600b0160019054906101000a900460ff16612643576040517f08c379a000000000000000000000000000000000000000000000000000000000815260040161263a9061441f565b60405180910390fd5b5f600381111561265657612655613b8a565b5b81600b015f9054906101000a900460ff16600381111561267957612678613b8a565b5b146126b9576040517f08c379a00000000000000000000000000000000000000000000000000000000081526004016126b090615567565b60405180910390fd5b33816003015f6101000a81548173ffffffffffffffffffffffffffffffffffffffff021916908373ffffffffffffffffffffffffffffffffffffffff160217905550838160030160146101000a81548160ff021916908315150217905550828160040181905550600181600b015f6101000a81548160ff0219169083600381111561274757612746613b8a565b5b02179055505f81600c015490508260055f8381526020019081526020015f2090816127729190614659565b505f3342898960405160200161278b94939291906155cf565b604051602081830303815290604052805190602001209050878760085f8481526020019081526020015f2091826127c3929190614826565b503373ffffffffffffffffffffffffffffffffffffffff1688886040516127eb9291906143bd565b60405180910390207f3eb9473c1d0acffcd27dbadb1e3c9cfb681da18cb301f1ee86e0449533198af8886040516128229190613386565b60405180910390a3807f92cbcd4ff01297a936f2aca89a7b6e567c2f20224247c06b12a4d81f75c845b089898760405161285e93929190615636565b60405180910390a2807f92cbcd4ff01297a936f2aca89a7b6e567c2f20224247c06b12a4d81f75c845b089896040516128989291906156ca565b60405180910390a25050505050505050565b7fbe0c84bfff967b2deb88bd0540d4a796d0ebfdcb72262ced26f1892b419e645781565b5f6128e860015f8481526020019081526020015f20612c7b565b9050919050565b5f600683836040516129029291906143bd565b9081526020016040518091039020600b0160019054906101000a900460ff16612960576040517f08c379a00000000000000000000000000000000000000000000000000000000081526004016129579061441f565b60405180910390fd5b600683836040516129729291906143bd565b9081526020016040518091039020600b015f9054906101000a900460ff16905092915050565b7feeb4ddf6a0e2f06cb86713282a0b88ee789709e92a08b9e9b4ce816bbb13fcaf81565b5f5f1b6129c881612bc0565b6129d28383612bee565b50505050565b60606007805480602002602001604051908101604052809291908181526020015f905b82821015612aa3578382905f5260205f20018054612a1890614142565b80601f0160208091040260200160405190810160405280929190818152602001828054612a4490614142565b8015612a8f5780601f10612a6657610100808354040283529160200191612a8f565b820191905f5260205f20905b815481529060010190602001808311612a7257829003601f168201915b5050505050815260200190600101906129fb565b50505050905090565b6008602052805f5260405f205f915090508054612ac890614142565b80601f0160208091040260200160405190810160405280929190818152602001828054612af490614142565b8015612b3f5780601f10612b1657610100808354040283529160200191612b3f565b820191905f5260205f20905b815481529060010190602001808311612b2257829003601f168201915b505050505081565b5f7f5a05180f000000000000000000000000000000000000000000000000000000007bffffffffffffffffffffffffffffffffffffffffffffffffffffffff1916827bffffffffffffffffffffffffffffffffffffffffffffffffffffffff19161480612bb95750612bb882612c8e565b5b9050919050565b612bd181612bcc612be7565b612d07565b50565b5f612bdf8383612d58565b905092915050565b5f33905090565b5f612bf98383612d9b565b905092915050565b5f612c0e835f0183612dde565b5f1c905092915050565b5f5f5f8481526020019081526020015f205f015f8373ffffffffffffffffffffffffffffffffffffffff1673ffffffffffffffffffffffffffffffffffffffff1681526020019081526020015f205f9054906101000a900460ff16905092915050565b5f612c87825f01612e05565b9050919050565b5f7f7965db0b000000000000000000000000000000000000000000000000000000007bffffffffffffffffffffffffffffffffffffffffffffffffffffffff1916827bffffffffffffffffffffffffffffffffffffffffffffffffffffffff19161480612d005750612cff82612e14565b5b9050919050565b612d118282611656565b612d545780826040517fe2517d3f000000000000000000000000000000000000000000000000000000008152600401612d4b929190615712565b60405180910390fd5b5050565b5f5f612d648484612e7d565b90508015612d9157612d8f8360015f8781526020019081526020015f20612f6690919063ffffffff16565b505b8091505092915050565b5f5f612da78484612f93565b90508015612dd457612dd28360015f8781526020019081526020015f2061307c90919063ffffffff16565b505b8091505092915050565b5f825f018281548110612df457612df36141c2565b5b905f5260205f200154905092915050565b5f815f01805490509050919050565b5f7f01ffc9a7000000000000000000000000000000000000000000000000000000007bffffffffffffffffffffffffffffffffffffffffffffffffffffffff1916827bffffffffffffffffffffffffffffffffffffffffffffffffffffffff1916149050919050565b5f612e888383611656565b612f5c5760015f5f8581526020019081526020015f205f015f8473ffffffffffffffffffffffffffffffffffffffff1673ffffffffffffffffffffffffffffffffffffffff1681526020019081526020015f205f6101000a81548160ff021916908315150217905550612ef9612be7565b73ffffffffffffffffffffffffffffffffffffffff168273ffffffffffffffffffffffffffffffffffffffff16847f2f8788117e7eff1d82e926ec794901d17c78024a50270940304540a733656f0d60405160405180910390a460019050612f60565b5f90505b92915050565b5f612f8b835f018373ffffffffffffffffffffffffffffffffffffffff165f1b6130a9565b905092915050565b5f612f9e8383611656565b15613072575f5f5f8581526020019081526020015f205f015f8473ffffffffffffffffffffffffffffffffffffffff1673ffffffffffffffffffffffffffffffffffffffff1681526020019081526020015f205f6101000a81548160ff02191690831515021790555061300f612be7565b73ffffffffffffffffffffffffffffffffffffffff168273ffffffffffffffffffffffffffffffffffffffff16847ff6391f5c32d9c69d2a47ea670b442974b53935d1edc7fd64eb21e047a839171b60405160405180910390a460019050613076565b5f90505b92915050565b5f6130a1835f018373ffffffffffffffffffffffffffffffffffffffff165f1b613110565b905092915050565b5f6130b4838361320c565b61310657825f0182908060018154018082558091505060019003905f5260205f20015f9091909190915055825f0180549050836001015f8481526020019081526020015f20819055506001905061310a565b5f90505b92915050565b5f5f836001015f8481526020019081526020015f205490505f8114613201575f60018261313d9190615739565b90505f6001865f01805490506131539190615739565b90508082146131b9575f865f018281548110613172576131716141c2565b5b905f5260205f200154905080875f018481548110613193576131926141c2565b5b905f5260205f20018190555083876001015f8381526020019081526020015f2081905550505b855f018054806131cc576131cb61576c565b5b600190038181905f5260205f20015f90559055856001015f8681526020019081526020015f205f905560019350505050613206565b5f9150505b92915050565b5f5f836001015f8481526020019081526020015f20541415905092915050565b604051806101e001604052806060815260200160608152602001606081526020015f73ffffffffffffffffffffffffffffffffffffffff1681526020015f151581526020015f81526020015f73ffffffffffffffffffffffffffffffffffffffff168152602001606081526020015f151581526020015f81526020015f81526020015f81526020015f60038111156132c7576132c6613b8a565b5b81526020015f151581526020015f81525090565b5f604051905090565b5f5ffd5b5f5ffd5b5f7fffffffff0000000000000000000000000000000000000000000000000000000082169050919050565b613320816132ec565b811461332a575f5ffd5b50565b5f8135905061333b81613317565b92915050565b5f60208284031215613356576133556132e4565b5b5f6133638482850161332d565b91505092915050565b5f8115159050919050565b6133808161336c565b82525050565b5f6020820190506133995f830184613377565b92915050565b5f819050919050565b6133b18161339f565b81146133bb575f5ffd5b50565b5f813590506133cc816133a8565b92915050565b5f602082840312156133e7576133e66132e4565b5b5f6133f4848285016133be565b91505092915050565b5f81519050919050565b5f82825260208201905092915050565b8281835e5f83830152505050565b5f601f19601f8301169050919050565b5f61343f826133fd565b6134498185613407565b9350613459818560208601613417565b61346281613425565b840191505092915050565b5f6020820190508181035f8301526134858184613435565b905092915050565b5f5ffd5b5f5ffd5b7f4e487b71000000000000000000000000000000000000000000000000000000005f52604160045260245ffd5b6134cb82613425565b810181811067ffffffffffffffff821117156134ea576134e9613495565b5b80604052505050565b5f6134fc6132db565b905061350882826134c2565b919050565b5f67ffffffffffffffff82111561352757613526613495565b5b61353082613425565b9050602081019050919050565b828183375f83830152505050565b5f61355d6135588461350d565b6134f3565b90508281526020810184848401111561357957613578613491565b5b61358484828561353d565b509392505050565b5f82601f8301126135a05761359f61348d565b5b81356135b084826020860161354b565b91505092915050565b5f602082840312156135ce576135cd6132e4565b5b5f82013567ffffffffffffffff8111156135eb576135ea6132e8565b5b6135f78482850161358c565b91505092915050565b6136098161339f565b82525050565b5f6020820190506136225f830184613600565b92915050565b5f819050919050565b61363a81613628565b8114613644575f5ffd5b50565b5f8135905061365581613631565b92915050565b5f602082840312156136705761366f6132e4565b5b5f61367d84828501613647565b91505092915050565b61368f81613628565b82525050565b5f6020820190506136a85f830184613686565b92915050565b600481106136ba575f5ffd5b50565b5f813590506136cb816136ae565b92915050565b5f602082840312156136e6576136e56132e4565b5b5f6136f3848285016136bd565b91505092915050565b5f81519050919050565b5f82825260208201905092915050565b5f819050602082019050919050565b5f82825260208201905092915050565b5f61373f826133fd565b6137498185613725565b9350613759818560208601613417565b61376281613425565b840191505092915050565b5f6137788383613735565b905092915050565b5f602082019050919050565b5f613796826136fc565b6137a08185613706565b9350836020820285016137b285613716565b805f5b858110156137ed57848403895281516137ce858261376d565b94506137d983613780565b925060208a019950506001810190506137b5565b50829750879550505050505092915050565b5f6020820190508181035f830152613817818461378c565b905092915050565b5f73ffffffffffffffffffffffffffffffffffffffff82169050919050565b5f6138488261381f565b9050919050565b6138588161383e565b8114613862575f5ffd5b50565b5f813590506138738161384f565b92915050565b5f5f6040838503121561388f5761388e6132e4565b5b5f61389c85828601613647565b92505060206138ad85828601613865565b9150509250929050565b5f5ffd5b5f5ffd5b5f5f83601f8401126138d4576138d361348d565b5b8235905067ffffffffffffffff8111156138f1576138f06138b7565b5b60208301915083600182028301111561390d5761390c6138bb565b5b9250929050565b5f5f5f5f5f6080868803121561392d5761392c6132e4565b5b5f86013567ffffffffffffffff81111561394a576139496132e8565b5b613956888289016138bf565b9550955050602061396988828901613647565b935050604061397a88828901613647565b925050606086013567ffffffffffffffff81111561399b5761399a6132e8565b5b6139a78882890161358c565b9150509295509295909350565b6139bd8161336c565b81146139c7575f5ffd5b50565b5f813590506139d8816139b4565b92915050565b5f5f5f5f5f5f608087890312156139f8576139f76132e4565b5b5f87013567ffffffffffffffff811115613a1557613a146132e8565b5b613a2189828a016138bf565b9650965050602087013567ffffffffffffffff811115613a4457613a436132e8565b5b613a5089828a016138bf565b94509450506040613a6389828a016139ca565b925050606087013567ffffffffffffffff811115613a8457613a836132e8565b5b613a9089828a0161358c565b9150509295509295509295565b5f5f60208385031215613ab357613ab26132e4565b5b5f83013567ffffffffffffffff811115613ad057613acf6132e8565b5b613adc858286016138bf565b92509250509250929050565b5f5f60408385031215613afe57613afd6132e4565b5b5f613b0b85828601613647565b9250506020613b1c858286016133be565b9150509250929050565b613b2f8161383e565b82525050565b5f602082019050613b485f830184613b26565b92915050565b613b578161383e565b82525050565b613b668161336c565b82525050565b613b7581613628565b82525050565b613b848161339f565b82525050565b7f4e487b71000000000000000000000000000000000000000000000000000000005f52602160045260245ffd5b60048110613bc857613bc7613b8a565b5b50565b5f819050613bd882613bb7565b919050565b5f613be782613bcb565b9050919050565b613bf781613bdd565b82525050565b5f6101e083015f8301518482035f860152613c188282613735565b91505060208301518482036020860152613c328282613735565b91505060408301518482036040860152613c4c8282613735565b9150506060830151613c616060860182613b4e565b506080830151613c746080860182613b5d565b5060a0830151613c8760a0860182613b6c565b5060c0830151613c9a60c0860182613b4e565b5060e083015184820360e0860152613cb28282613735565b915050610100830151613cc9610100860182613b5d565b50610120830151613cde610120860182613b6c565b50610140830151613cf3610140860182613b6c565b50610160830151613d08610160860182613b7b565b50610180830151613d1d610180860182613bee565b506101a0830151613d326101a0860182613b5d565b506101c0830151613d476101c0860182613b7b565b508091505092915050565b5f6020820190508181035f830152613d6a8184613bfd565b905092915050565b5f81519050919050565b5f82825260208201905092915050565b5f819050602082019050919050565b5f613da68383613b4e565b60208301905092915050565b5f602082019050919050565b5f613dc882613d72565b613dd28185613d7c565b9350613ddd83613d8c565b805f5b83811015613e0d578151613df48882613d9b565b9750613dff83613db2565b925050600181019050613de0565b5085935050505092915050565b5f6020820190508181035f830152613e328184613dbe565b905092915050565b5f5f83601f840112613e4f57613e4e61348d565b5b8235905067ffffffffffffffff811115613e6c57613e6b6138b7565b5b602083019150836020820283011115613e8857613e876138bb565b5b9250929050565b5f67ffffffffffffffff821115613ea957613ea8613495565b5b602082029050602081019050919050565b5f613ecc613ec784613e8f565b6134f3565b90508083825260208201905060208402830185811115613eef57613eee6138bb565b5b835b81811015613f3657803567ffffffffffffffff811115613f1457613f1361348d565b5b808601613f21898261358c565b85526020850194505050602081019050613ef1565b5050509392505050565b5f82601f830112613f5457613f5361348d565b5b8135613f64848260208601613eba565b91505092915050565b5f5f5f5f5f5f5f6080888a031215613f8857613f876132e4565b5b5f88013567ffffffffffffffff811115613fa557613fa46132e8565b5b613fb18a828b01613e3a565b9750975050602088013567ffffffffffffffff811115613fd457613fd36132e8565b5b613fe08a828b01613e3a565b9550955050604088013567ffffffffffffffff811115614003576140026132e8565b5b61400f8a828b01613e3a565b9350935050606088013567ffffffffffffffff811115614032576140316132e8565b5b61403e8a828b01613f40565b91505092959891949750929550565b5f5f5f5f5f60808688031215614066576140656132e4565b5b5f86013567ffffffffffffffff811115614083576140826132e8565b5b61408f888289016138bf565b955095505060206140a2888289016139ca565b93505060406140b388828901613647565b925050606086013567ffffffffffffffff8111156140d4576140d36132e8565b5b6140e08882890161358c565b9150509295509295909350565b6140f681613bdd565b82525050565b5f60208201905061410f5f8301846140ed565b92915050565b7f4e487b71000000000000000000000000000000000000000000000000000000005f52602260045260245ffd5b5f600282049050600182168061415957607f821691505b60208210810361416c5761416b614115565b5b50919050565b5f81905092915050565b5f614186826133fd565b6141908185614172565b93506141a0818560208601613417565b80840191505092915050565b5f6141b7828461417c565b915081905092915050565b7f4e487b71000000000000000000000000000000000000000000000000000000005f52603260045260245ffd5b5f819050815f5260205f209050919050565b5f815461420d81614142565b6142178186614172565b9450600182165f8114614231576001811461424657614278565b60ff1983168652811515820286019350614278565b61424f856141ef565b5f5b8381101561427057815481890152600182019150602081019050614251565b838801955050505b50505092915050565b5f61428c8284614201565b915081905092915050565b7f4e487b71000000000000000000000000000000000000000000000000000000005f52601160045260245ffd5b5f6142ce8261339f565b91507fffffffffffffffffffffffffffffffffffffffffffffffffffffffffffffffff8203614300576142ff614297565b5b600182019050919050565b7f4163636573732064656e6965643a2045534355454c415f524f4c4520726571755f8201527f6972656400000000000000000000000000000000000000000000000000000000602082015250565b5f614365602483613407565b91506143708261430b565b604082019050919050565b5f6020820190508181035f83015261439281614359565b9050919050565b5f6143a48385614172565b93506143b183858461353d565b82840190509392505050565b5f6143c9828486614399565b91508190509392505050565b7f4e6574626f6f6b206e6f7420666f756e640000000000000000000000000000005f82015250565b5f614409601183613407565b9150614414826143d5565b602082019050919050565b5f6020820190508181035f830152614436816143fd565b9050919050565b7f496e76616c696420737461746520666f722073747564656e742061737369676e5f8201527f6d656e7400000000000000000000000000000000000000000000000000000000602082015250565b5f614497602483613407565b91506144a28261443d565b604082019050919050565b5f6020820190508181035f8301526144c48161448b565b9050919050565b5f6020601f8301049050919050565b5f82821b905092915050565b5f600883026145157fffffffffffffffffffffffffffffffffffffffffffffffffffffffffffffffff826144da565b61451f86836144da565b95508019841693508086168417925050509392505050565b5f819050919050565b5f61455a6145556145508461339f565b614537565b61339f565b9050919050565b5f819050919050565b61457383614540565b61458761457f82614561565b8484546144e6565b825550505050565b5f5f905090565b61459e61458f565b6145a981848461456a565b505050565b5b818110156145cc576145c15f82614596565b6001810190506145af565b5050565b601f821115614611576145e2816141ef565b6145eb846144cb565b810160208510156145fa578190505b61460e614606856144cb565b8301826145ae565b50505b505050565b5f82821c905092915050565b5f6146315f1984600802614616565b1980831691505092915050565b5f6146498383614622565b9150826002028217905092915050565b614662826133fd565b67ffffffffffffffff81111561467b5761467a613495565b5b6146858254614142565b6146908282856145d0565b5f60209050601f8311600181146146c1575f84156146af578287015190505b6146b9858261463e565b865550614720565b601f1984166146cf866141ef565b5f5b828110156146f6578489015182556001820191506020850194506020810190506146d1565b86831015614713578489015161470f601f891682614622565b8355505b6001600288020188555050505b505050505050565b5f8160601b9050919050565b5f61473e82614728565b9050919050565b5f61474f82614734565b9050919050565b6147676147628261383e565b614745565b82525050565b5f819050919050565b6147876147828261339f565b61476d565b82525050565b7f73747564656e745f61737369676e6d656e7400000000000000000000000000005f82015250565b5f6147c1601283614172565b91506147cc8261478d565b601282019050919050565b5f6147e28287614756565b6014820191506147f28286614776565b602082019150614803828486614399565b915061480e826147b5565b915081905095945050505050565b5f82905092915050565b614830838361481c565b67ffffffffffffffff81111561484957614848613495565b5b6148538254614142565b61485e8282856145d0565b5f601f83116001811461488b575f8415614879578287013590505b614883858261463e565b8655506148ea565b601f198416614899866141ef565b5f5b828110156148c05784890135825560018201915060208501945060208101905061489b565b868310156148dd57848901356148d9601f891682614622565b8355505b6001600288020188555050505b50505050505050565b5f6040820190506149065f830185613686565b6149136020830184613686565b9392505050565b5f6149258385613407565b935061493283858461353d565b61493b83613425565b840190509392505050565b5f614952601283613407565b915061495d8261478d565b602082019050919050565b5f6060820190508181035f83015261498181858761491a565b9050818103602083015261499481614946565b905081810360408301526149a88184613435565b9050949350505050565b7f73746174655f7472616e736974696f6e000000000000000000000000000000005f82015250565b5f6149e6601083613407565b91506149f1826149b2565b602082019050919050565b7f53575f56414c494441444f202d3e2044495354524942554944410000000000005f82015250565b5f614a30601a83613407565b9150614a3b826149fc565b602082019050919050565b5f6060820190508181035f830152614a5f81848661491a565b90508181036020830152614a72816149da565b90508181036040830152614a8581614a24565b90509392505050565b7f4163636573732064656e6965643a205445434e49434f5f53575f524f4c4520725f8201527f6571756972656400000000000000000000000000000000000000000000000000602082015250565b5f614ae8602783613407565b9150614af382614a8e565b604082019050919050565b5f6020820190508181035f830152614b1581614adc565b9050919050565b7f496e76616c696420737461746520666f7220736f6674776172652076616c69645f8201527f6174696f6e000000000000000000000000000000000000000000000000000000602082015250565b5f614b76602583613407565b9150614b8182614b1c565b604082019050919050565b5f6020820190508181035f830152614ba381614b6a565b9050919050565b7f736f6674776172655f76616c69646174696f6e000000000000000000000000005f82015250565b5f614bde601383614172565b9150614be982614baa565b601382019050919050565b5f614bff8287614756565b601482019150614c0f8286614776565b602082019150614c20828486614399565b9150614c2b82614bd2565b915081905095945050505050565b5f6020820190508181035f830152614c5281848661491a565b90509392505050565b5f614c67601383613407565b9150614c7282614baa565b602082019050919050565b5f6060820190508181035f830152614c9681858761491a565b90508181036020830152614ca981614c5b565b90508181036040830152614cbd8184613435565b9050949350505050565b7f48575f4150524f4241444f202d3e2053575f56414c494441444f0000000000005f82015250565b5f614cfb601a83613407565b9150614d0682614cc7565b602082019050919050565b5f6060820190508181035f830152614d2a81848661491a565b90508181036020830152614d3d816149da565b90508181036040830152614d5081614cef565b90509392505050565b7f464142524943414e5445000000000000000000000000000000000000000000005f82015250565b5f614d8d600a83614172565b9150614d9882614d59565b600a82019050919050565b5f614dad82614d81565b9150819050919050565b7f41554449544f525f4857000000000000000000000000000000000000000000005f82015250565b5f614deb600a83614172565b9150614df682614db7565b600a82019050919050565b5f614e0b82614ddf565b9150819050919050565b7f5445434e49434f5f5357000000000000000000000000000000000000000000005f82015250565b5f614e49600a83614172565b9150614e5482614e15565b600a82019050919050565b5f614e6982614e3d565b9150819050919050565b7f45534355454c41000000000000000000000000000000000000000000000000005f82015250565b5f614ea7600783614172565b9150614eb282614e73565b600782019050919050565b5f614ec782614e9b565b9150819050919050565b7f41444d494e0000000000000000000000000000000000000000000000000000005f82015250565b5f614f05600583614172565b9150614f1082614ed1565b600582019050919050565b5f614f2582614ef9565b9150819050919050565b7f44454641554c545f41444d494e000000000000000000000000000000000000005f82015250565b5f614f63600d83614172565b9150614f6e82614f2f565b600d82019050919050565b5f614f8382614f57565b9150819050919050565b7f4d414e41474552000000000000000000000000000000000000000000000000005f82015250565b5f614fc1600783614172565b9150614fcc82614f8d565b600782019050919050565b5f614fe182614fb5565b9150819050919050565b7f4f574e45520000000000000000000000000000000000000000000000000000005f82015250565b5f61501f600583614172565b915061502a82614feb565b600582019050919050565b5f61503f82615013565b9150819050919050565b7f496e76616c696420726f6c6520747970650000000000000000000000000000005f82015250565b5f61507d601183613407565b915061508882615049565b602082019050919050565b5f6020820190508181035f8301526150aa81615071565b9050919050565b7f4163636573732064656e6965643a20464142524943414e54455f524f4c4520725f8201527f6571756972656400000000000000000000000000000000000000000000000000602082015250565b5f61510b602783613407565b9150615116826150b1565b604082019050919050565b5f6020820190508181035f830152615138816150ff565b9050919050565b7f4172726179206c656e677468206d69736d6174636800000000000000000000005f82015250565b5f615173601583613407565b915061517e8261513f565b602082019050919050565b5f6020820190508181035f8301526151a081615167565b9050919050565b5f5ffd5b5f5ffd5b5f5ffd5b5f5f833560016020038436030381126151cf576151ce6151a7565b5b80840192508235915067ffffffffffffffff8211156151f1576151f06151ab565b5b60208301925060018202360383131561520d5761520c6151af565b5b509250929050565b7f496e76616c69642073657269616c206e756d62657200000000000000000000005f82015250565b5f615249601583613407565b915061525482615215565b602082019050919050565b5f6020820190508181035f8301526152768161523d565b9050919050565b7f4e6574626f6f6b20616c726561647920726567697374657265640000000000005f82015250565b5f6152b1601a83613407565b91506152bc8261527d565b602082019050919050565b5f6020820190508181035f8301526152de816152a5565b9050919050565b5f6152f08287614756565b6014820191506153008286614776565b602082019150615311828486614399565b915081905095945050505050565b7f696e697469616c5f7374617465000000000000000000000000000000000000005f82015250565b5f615353600d83613407565b915061535e8261531f565b602082019050919050565b7f46414252494341444100000000000000000000000000000000000000000000005f82015250565b5f61539d600983613407565b91506153a882615369565b602082019050919050565b5f6060820190508181035f8301526153cc81848661491a565b905081810360208301526153df81615347565b905081810360408301526153f281615391565b90509392505050565b7f6d657461646174610000000000000000000000000000000000000000000000005f82015250565b5f61542f600883613407565b915061543a826153fb565b602082019050919050565b5f6060820190508181035f83015261545e81858761491a565b9050818103602083015261547181615423565b905081810360408301526154858184613435565b9050949350505050565b7f4163636573732064656e6965643a2041554449544f525f48575f524f4c4520725f8201527f6571756972656400000000000000000000000000000000000000000000000000602082015250565b5f6154e9602783613407565b91506154f48261548f565b604082019050919050565b5f6020820190508181035f830152615516816154dd565b9050919050565b7f496e76616c696420737461746520666f722068617264776172652061756469745f82015250565b5f615551602083613407565b915061555c8261551d565b602082019050919050565b5f6020820190508181035f83015261557e81615545565b9050919050565b7f68617264776172655f61756469740000000000000000000000000000000000005f82015250565b5f6155b9600e83614172565b91506155c482615585565b600e82019050919050565b5f6155da8287614756565b6014820191506155ea8286614776565b6020820191506155fb828486614399565b9150615606826155ad565b915081905095945050505050565b5f615620600e83613407565b915061562b82615585565b602082019050919050565b5f6060820190508181035f83015261564f81858761491a565b9050818103602083015261566281615614565b905081810360408301526156768184613435565b9050949350505050565b7f464142524943414441202d3e2048575f4150524f4241444f00000000000000005f82015250565b5f6156b4601883613407565b91506156bf82615680565b602082019050919050565b5f6060820190508181035f8301526156e381848661491a565b905081810360208301526156f6816149da565b90508181036040830152615709816156a8565b90509392505050565b5f6040820190506157255f830185613b26565b6157326020830184613686565b9392505050565b5f6157438261339f565b915061574e8361339f565b925082820390508181111561576657615765614297565b5b92915050565b7f4e487b71000000000000000000000000000000000000000000000000000000005f52603160045260245ffdfea2646970667358221220ba1964ae602a14b6f4b94418db75855de091d2f058b7929a9a4039116f34356464736f6c634300081e0033","linkReferences":{}},"methodIdentifiers":{"AUDITOR_HW_ROLE()":"69abb1d4","DEFAULT_ADMIN_ROLE()":"a217fddf","ESCUELA_ROLE()":"8a56fd33","FABRICANTE_ROLE()":"c9d9e6b1","TECNICO_SW_ROLE()":"d25c992a","allSerialNumbers(uint256)":"80a4721e","assignToStudent(string,bytes32,bytes32,string)":"36853f76","auditHardware(string,bool,bytes32,string)":"b141ac86","getAllMembers(bytes32)":"a9619e09","getAllSerialNumbers()":"e01fe367","getNetbookReport(string)":"a7aaac72","getNetbookState(string)":"cd282306","getNetbooksByState(uint8)":"2e935f33","getRoleAdmin(bytes32)":"248a9ca3","getRoleByName(string)":"53a9020e","getRoleMember(bytes32,uint256)":"9010d07c","getRoleMemberCount(bytes32)":"ca15c873","getSerialNumber(uint256)":"9bd905f8","getTokenId(string)":"1e7663bc","getTokenMetadata(uint256)":"60316801","grantRole(bytes32,address)":"2f2ff15d","hasRole(bytes32,address)":"91d14854","registerNetbooks(string[],string[],string[],string[])":"ae80ba80","renounceRole(bytes32,address)":"36568abe","revokeRole(bytes32,address)":"d547741f","serialToTokenId(string)":"59163635","supportsInterface(bytes4)":"01ffc9a7","tokenIdToSerial(uint256)":"0cc13601","totalNetbooks()":"6b22d859","transactionToSerial(bytes32)":"e94e3923","validateSoftware(string,string,bool,string)":"4ace00c8"},"id":8}